{
  "address": "0xA0Ed5eF008557580247d3C813710B681e9cB5700",
  "abi": [
    {
      "inputs": [],
      "stateMutability": "nonpayable",
      "type": "constructor"
    },
    {
      "inputs": [
        {
          "internalType": "address",
          "name": "target",
          "type": "address"
        }
      ],
      "name": "AddressEmptyCode",
      "type": "error"
    },
    {
      "inputs": [
        {
          "internalType": "address",
          "name": "account",
          "type": "address"
        }
      ],
      "name": "AddressInsufficientBalance",
      "type": "error"
    },
    {
      "inputs": [
        {
          "internalType": "address",
          "name": "spender",
          "type": "address"
        },
        {
          "internalType": "uint256",
          "name": "allowance",
          "type": "uint256"
        },
        {
          "internalType": "uint256",
          "name": "needed",
          "type": "uint256"
        }
      ],
      "name": "ERC20InsufficientAllowance",
      "type": "error"
    },
    {
      "inputs": [
        {
          "internalType": "address",
          "name": "sender",
          "type": "address"
        },
        {
          "internalType": "uint256",
          "name": "balance",
          "type": "uint256"
        },
        {
          "internalType": "uint256",
          "name": "needed",
          "type": "uint256"
        }
      ],
      "name": "ERC20InsufficientBalance",
      "type": "error"
    },
    {
      "inputs": [
        {
          "internalType": "address",
          "name": "approver",
          "type": "address"
        }
      ],
      "name": "ERC20InvalidApprover",
      "type": "error"
    },
    {
      "inputs": [
        {
          "internalType": "address",
          "name": "receiver",
          "type": "address"
        }
      ],
      "name": "ERC20InvalidReceiver",
      "type": "error"
    },
    {
      "inputs": [
        {
          "internalType": "address",
          "name": "sender",
          "type": "address"
        }
      ],
      "name": "ERC20InvalidSender",
      "type": "error"
    },
    {
      "inputs": [
        {
          "internalType": "address",
          "name": "spender",
          "type": "address"
        }
      ],
      "name": "ERC20InvalidSpender",
      "type": "error"
    },
    {
      "inputs": [],
      "name": "FailedInnerCall",
      "type": "error"
    },
    {
      "inputs": [
        {
          "internalType": "address",
          "name": "owner",
          "type": "address"
        }
      ],
      "name": "OwnableInvalidOwner",
      "type": "error"
    },
    {
      "inputs": [
        {
          "internalType": "address",
          "name": "account",
          "type": "address"
        }
      ],
      "name": "OwnableUnauthorizedAccount",
      "type": "error"
    },
    {
      "inputs": [],
      "name": "ReentrancyGuardReentrantCall",
      "type": "error"
    },
    {
      "inputs": [
        {
          "internalType": "address",
          "name": "token",
          "type": "address"
        }
      ],
      "name": "SafeERC20FailedOperation",
      "type": "error"
    },
    {
      "anonymous": false,
      "inputs": [
        {
          "indexed": true,
          "internalType": "address",
          "name": "owner",
          "type": "address"
        },
        {
          "indexed": true,
          "internalType": "address",
          "name": "spender",
          "type": "address"
        },
        {
          "indexed": false,
          "internalType": "uint256",
          "name": "value",
          "type": "uint256"
        }
      ],
      "name": "Approval",
      "type": "event"
    },
    {
      "anonymous": false,
      "inputs": [
        {
          "indexed": true,
          "internalType": "address",
          "name": "activator",
          "type": "address"
        }
      ],
      "name": "BuyActivated",
      "type": "event"
    },
    {
      "anonymous": false,
      "inputs": [
        {
          "indexed": true,
          "internalType": "address",
          "name": "deactivator",
          "type": "address"
        }
      ],
      "name": "BuyDeactivated",
      "type": "event"
    },
    {
      "anonymous": false,
      "inputs": [
        {
          "indexed": true,
          "internalType": "address",
          "name": "user",
          "type": "address"
        },
        {
          "indexed": false,
          "internalType": "uint256",
          "name": "amount",
          "type": "uint256"
        },
        {
          "indexed": false,
          "internalType": "uint256",
          "name": "newTotalSupply",
          "type": "uint256"
        }
      ],
      "name": "BuyTokens",
      "type": "event"
    },
    {
      "anonymous": false,
      "inputs": [
        {
          "indexed": true,
          "internalType": "address",
          "name": "newDistributionAddress",
          "type": "address"
        }
      ],
      "name": "DistributionAddressUpdated",
      "type": "event"
    },
    {
      "anonymous": false,
      "inputs": [
        {
          "indexed": false,
          "internalType": "uint256",
          "name": "newMinAmountBuy",
          "type": "uint256"
        }
      ],
      "name": "MinAmountBuyChanged",
      "type": "event"
    },
    {
      "anonymous": false,
      "inputs": [
        {
          "indexed": true,
          "internalType": "address",
          "name": "previousOwner",
          "type": "address"
        },
        {
          "indexed": true,
          "internalType": "address",
          "name": "newOwner",
          "type": "address"
        }
      ],
      "name": "OwnershipTransferred",
      "type": "event"
    },
    {
      "anonymous": false,
      "inputs": [
        {
          "indexed": false,
          "internalType": "uint256",
          "name": "newSoftMaxSupply",
          "type": "uint256"
        }
      ],
      "name": "SoftMaxSupplyChanged",
      "type": "event"
    },
    {
      "anonymous": false,
      "inputs": [
        {
          "indexed": true,
          "internalType": "address",
          "name": "from",
          "type": "address"
        },
        {
          "indexed": true,
          "internalType": "address",
          "name": "to",
          "type": "address"
        },
        {
          "indexed": false,
          "internalType": "uint256",
          "name": "value",
          "type": "uint256"
        }
      ],
      "name": "Transfer",
      "type": "event"
    },
    {
      "anonymous": false,
      "inputs": [
        {
          "indexed": true,
          "internalType": "address",
          "name": "activator",
          "type": "address"
        }
      ],
      "name": "WhitelistActivated",
      "type": "event"
    },
    {
      "anonymous": false,
      "inputs": [
        {
          "indexed": true,
          "internalType": "address",
          "name": "deactivator",
          "type": "address"
        }
      ],
      "name": "WhitelistDeactivated",
      "type": "event"
    },
    {
      "anonymous": false,
      "inputs": [
        {
          "indexed": true,
          "internalType": "address",
          "name": "addr",
          "type": "address"
        },
        {
          "indexed": false,
          "internalType": "bool",
          "name": "whitelisted",
          "type": "bool"
        }
      ],
      "name": "WhitelistUpdated",
      "type": "event"
    },
    {
      "inputs": [],
      "name": "DENOMINATOR",
      "outputs": [
        {
          "internalType": "uint256",
          "name": "",
          "type": "uint256"
        }
      ],
      "stateMutability": "view",
      "type": "function"
    },
    {
      "inputs": [
        {
          "internalType": "address",
          "name": "owner",
          "type": "address"
        },
        {
          "internalType": "address",
          "name": "spender",
          "type": "address"
        }
      ],
      "name": "allowance",
      "outputs": [
        {
          "internalType": "uint256",
          "name": "",
          "type": "uint256"
        }
      ],
      "stateMutability": "view",
      "type": "function"
    },
    {
      "inputs": [
        {
          "internalType": "address",
          "name": "spender",
          "type": "address"
        },
        {
          "internalType": "uint256",
          "name": "value",
          "type": "uint256"
        }
      ],
      "name": "approve",
      "outputs": [
        {
          "internalType": "bool",
          "name": "",
          "type": "bool"
        }
      ],
      "stateMutability": "nonpayable",
      "type": "function"
    },
    {
      "inputs": [],
      "name": "apy",
      "outputs": [
        {
          "internalType": "uint256",
          "name": "",
          "type": "uint256"
        }
      ],
      "stateMutability": "view",
      "type": "function"
    },
    {
      "inputs": [],
      "name": "aqtisApy",
      "outputs": [
        {
          "internalType": "uint256",
          "name": "",
          "type": "uint256"
        }
      ],
      "stateMutability": "view",
      "type": "function"
    },
    {
      "inputs": [
        {
          "internalType": "address",
          "name": "account",
          "type": "address"
        }
      ],
      "name": "balanceOf",
      "outputs": [
        {
          "internalType": "uint256",
          "name": "",
          "type": "uint256"
        }
      ],
      "stateMutability": "view",
      "type": "function"
    },
    {
      "inputs": [],
      "name": "buyActive",
      "outputs": [
        {
          "internalType": "bool",
          "name": "",
          "type": "bool"
        }
      ],
      "stateMutability": "view",
      "type": "function"
    },
    {
      "inputs": [
        {
          "internalType": "uint256",
          "name": "",
          "type": "uint256"
        }
      ],
      "name": "buyTokens",
      "outputs": [],
      "stateMutability": "view",
      "type": "function"
    },
    {
      "inputs": [],
      "name": "buyTokensWithEth",
      "outputs": [],
      "stateMutability": "payable",
      "type": "function"
    },
    {
      "inputs": [],
      "name": "cap",
      "outputs": [
        {
          "internalType": "uint256",
          "name": "",
          "type": "uint256"
        }
      ],
      "stateMutability": "view",
      "type": "function"
    },
    {
      "inputs": [],
      "name": "circulatingSupply",
      "outputs": [
        {
          "internalType": "uint256",
          "name": "",
          "type": "uint256"
        }
      ],
      "stateMutability": "view",
      "type": "function"
    },
    {
      "inputs": [],
      "name": "cumulativeCirculatingSupply",
      "outputs": [
        {
          "internalType": "uint256",
          "name": "",
          "type": "uint256"
        }
      ],
      "stateMutability": "view",
      "type": "function"
    },
    {
      "inputs": [],
      "name": "decimals",
      "outputs": [
        {
          "internalType": "uint8",
          "name": "",
          "type": "uint8"
        }
      ],
      "stateMutability": "view",
      "type": "function"
    },
    {
      "inputs": [],
      "name": "distributionAddress",
      "outputs": [
        {
          "internalType": "address",
          "name": "",
          "type": "address"
        }
      ],
      "stateMutability": "view",
      "type": "function"
    },
    {
      "inputs": [
        {
          "internalType": "address",
          "name": "user",
          "type": "address"
        }
      ],
      "name": "getRewardsFor",
      "outputs": [
        {
          "components": [
            {
              "internalType": "uint256",
              "name": "usdcRewards",
              "type": "uint256"
            },
            {
              "internalType": "uint256",
              "name": "ethRewards",
              "type": "uint256"
            },
            {
              "internalType": "uint256",
              "name": "aqtisRewards",
              "type": "uint256"
            },
            {
              "internalType": "uint256",
              "name": "cappedLSTRewards",
              "type": "uint256"
            }
          ],
          "internalType": "struct IRewards.RewardsDistribution",
          "name": "",
          "type": "tuple"
        }
      ],
      "stateMutability": "view",
      "type": "function"
    },
    {
      "inputs": [
        {
          "internalType": "address",
          "name": "user",
          "type": "address"
        }
      ],
      "name": "lastClaimTime",
      "outputs": [
        {
          "internalType": "uint256",
          "name": "",
          "type": "uint256"
        }
      ],
      "stateMutability": "view",
      "type": "function"
    },
    {
      "inputs": [],
      "name": "minAmountBuy",
      "outputs": [
        {
          "internalType": "uint256",
          "name": "",
          "type": "uint256"
        }
      ],
      "stateMutability": "view",
      "type": "function"
    },
    {
      "inputs": [
        {
          "internalType": "uint256",
          "name": "amount",
          "type": "uint256"
        }
      ],
      "name": "mint",
      "outputs": [],
      "stateMutability": "nonpayable",
      "type": "function"
    },
    {
      "inputs": [
        {
          "internalType": "uint256",
          "name": "amount",
          "type": "uint256"
        }
      ],
      "name": "mintWithCap",
      "outputs": [],
      "stateMutability": "nonpayable",
      "type": "function"
    },
    {
      "inputs": [],
      "name": "name",
      "outputs": [
        {
          "internalType": "string",
          "name": "",
          "type": "string"
        }
      ],
      "stateMutability": "view",
      "type": "function"
    },
    {
      "inputs": [],
      "name": "owner",
      "outputs": [
        {
          "internalType": "address",
          "name": "",
          "type": "address"
        }
      ],
      "stateMutability": "view",
      "type": "function"
    },
    {
      "inputs": [],
      "name": "renounceOwnership",
      "outputs": [],
      "stateMutability": "nonpayable",
      "type": "function"
    },
    {
      "inputs": [
        {
          "internalType": "address",
          "name": "user",
          "type": "address"
        }
      ],
      "name": "resetUser",
      "outputs": [],
      "stateMutability": "nonpayable",
      "type": "function"
    },
    {
      "inputs": [],
      "name": "rewardsAddress",
      "outputs": [
        {
          "internalType": "address",
          "name": "",
          "type": "address"
        }
      ],
      "stateMutability": "view",
      "type": "function"
    },
    {
      "inputs": [
        {
          "internalType": "bool",
          "name": "_buyActive",
          "type": "bool"
        }
      ],
      "name": "setBuyActive",
      "outputs": [],
      "stateMutability": "nonpayable",
      "type": "function"
    },
    {
      "inputs": [
        {
          "internalType": "uint256",
          "name": "_newCap",
          "type": "uint256"
        }
      ],
      "name": "setCap",
      "outputs": [],
      "stateMutability": "nonpayable",
      "type": "function"
    },
    {
      "inputs": [
        {
          "internalType": "address",
          "name": "_contract",
          "type": "address"
        },
        {
          "internalType": "bool",
          "name": "_whitelisted",
          "type": "bool"
        }
      ],
      "name": "setContractRewardsWhitelist",
      "outputs": [],
      "stateMutability": "nonpayable",
      "type": "function"
    },
    {
      "inputs": [
        {
          "internalType": "address",
          "name": "_distributionAddress",
          "type": "address"
        }
      ],
      "name": "setDistributionAddress",
      "outputs": [],
      "stateMutability": "nonpayable",
      "type": "function"
    },
    {
      "inputs": [
        {
          "internalType": "uint256",
          "name": "_newMinAmountBuy",
          "type": "uint256"
        }
      ],
      "name": "setMinAmountBuy",
      "outputs": [],
      "stateMutability": "nonpayable",
      "type": "function"
    },
    {
      "inputs": [
        {
          "internalType": "address",
          "name": "_rewardsAddress",
          "type": "address"
        }
      ],
      "name": "setRewardsAddress",
      "outputs": [],
      "stateMutability": "nonpayable",
      "type": "function"
    },
    {
      "inputs": [
        {
          "internalType": "address",
          "name": "_tokenPriceCalculator",
          "type": "address"
        }
      ],
      "name": "setTokenPriceCalculator",
      "outputs": [],
      "stateMutability": "nonpayable",
      "type": "function"
    },
    {
      "inputs": [
        {
          "internalType": "bool",
          "name": "_whitelistActive",
          "type": "bool"
        }
      ],
      "name": "setWhitelistActive",
      "outputs": [],
      "stateMutability": "nonpayable",
      "type": "function"
    },
    {
      "inputs": [],
      "name": "symbol",
      "outputs": [
        {
          "internalType": "string",
          "name": "",
          "type": "string"
        }
      ],
      "stateMutability": "view",
      "type": "function"
    },
    {
      "inputs": [],
      "name": "tokenPriceCalculator",
      "outputs": [
        {
          "internalType": "contract ITokenPriceCalculator",
          "name": "",
          "type": "address"
        }
      ],
      "stateMutability": "view",
      "type": "function"
    },
    {
      "inputs": [],
      "name": "totalSupply",
      "outputs": [
        {
          "internalType": "uint256",
          "name": "",
          "type": "uint256"
        }
      ],
      "stateMutability": "view",
      "type": "function"
    },
    {
      "inputs": [
        {
          "internalType": "address",
          "name": "to",
          "type": "address"
        },
        {
          "internalType": "uint256",
          "name": "value",
          "type": "uint256"
        }
      ],
      "name": "transfer",
      "outputs": [
        {
          "internalType": "bool",
          "name": "",
          "type": "bool"
        }
      ],
      "stateMutability": "nonpayable",
      "type": "function"
    },
    {
      "inputs": [
        {
          "internalType": "address",
          "name": "from",
          "type": "address"
        },
        {
          "internalType": "address",
          "name": "to",
          "type": "address"
        },
        {
          "internalType": "uint256",
          "name": "value",
          "type": "uint256"
        }
      ],
      "name": "transferFrom",
      "outputs": [
        {
          "internalType": "bool",
          "name": "",
          "type": "bool"
        }
      ],
      "stateMutability": "nonpayable",
      "type": "function"
    },
    {
      "inputs": [
        {
          "internalType": "address",
          "name": "newOwner",
          "type": "address"
        }
      ],
      "name": "transferOwnership",
      "outputs": [],
      "stateMutability": "nonpayable",
      "type": "function"
    },
    {
      "inputs": [
        {
          "internalType": "address",
          "name": "user",
          "type": "address"
        }
      ],
      "name": "twaCircSupplySinceLastClaim",
      "outputs": [
        {
          "internalType": "uint256",
          "name": "",
          "type": "uint256"
        }
      ],
      "stateMutability": "view",
      "type": "function"
    },
    {
      "inputs": [
        {
          "internalType": "address",
          "name": "_addr",
          "type": "address"
        },
        {
          "internalType": "bool",
          "name": "_whitelisted",
          "type": "bool"
        }
      ],
      "name": "updateWhitelist",
      "outputs": [],
      "stateMutability": "nonpayable",
      "type": "function"
    },
    {
      "inputs": [
        {
          "internalType": "address",
          "name": "user",
          "type": "address"
        }
      ],
      "name": "userTWAB",
      "outputs": [
        {
          "internalType": "uint256",
          "name": "",
          "type": "uint256"
        }
      ],
      "stateMutability": "view",
      "type": "function"
    },
    {
      "inputs": [
        {
          "internalType": "address",
          "name": "",
          "type": "address"
        }
      ],
      "name": "whitelist",
      "outputs": [
        {
          "internalType": "bool",
          "name": "",
          "type": "bool"
        }
      ],
      "stateMutability": "view",
      "type": "function"
    },
    {
      "inputs": [],
      "name": "whitelistActive",
      "outputs": [
        {
          "internalType": "bool",
          "name": "",
          "type": "bool"
        }
      ],
      "stateMutability": "view",
      "type": "function"
    },
    {
      "inputs": [
        {
          "internalType": "address",
          "name": "",
          "type": "address"
        }
      ],
      "name": "whitelistedContracts",
      "outputs": [
        {
          "internalType": "bool",
          "name": "",
          "type": "bool"
        }
      ],
      "stateMutability": "view",
      "type": "function"
    },
    {
      "inputs": [
        {
          "internalType": "address",
          "name": "token",
          "type": "address"
        }
      ],
      "name": "withdrawERC20",
      "outputs": [],
      "stateMutability": "nonpayable",
      "type": "function"
    },
    {
      "inputs": [],
      "name": "withdrawETH",
      "outputs": [],
      "stateMutability": "nonpayable",
      "type": "function"
    }
  ],
  "transactionHash": "0x429ea34833db21e595d8d40e78a4bbea2e74b8af398415165b6112b40bee03ca",
  "args": [],
  "numDeployments": 1,
  "solcInputHash": "9087a8a1961bde39b6a21ecb15b711d3",
  "bytecode": "0x60c06040523480156200001157600080fd5b50606460198181604051806040016040528060048152602001630e28aa8960e31b815250604051806040016040528060048152602001630e28aa8960e31b815250690a968163f0a57b4000003383838382828160039081620000749190620001d9565b506004620000838282620001d9565b50505060055550506001600160a01b038116620000ba57604051631e4fbdf760e01b81526000600482015260240160405180910390fd5b620000c581620000e0565b50506001600755505060809190915260a05250620002a59050565b600680546001600160a01b038381166001600160a01b0319831681179093556040519116919082907f8be0079c531659141344cd1fd0a4f28419497f9722a3daafe3b4186f6b6457e090600090a35050565b634e487b7160e01b600052604160045260246000fd5b600181811c908216806200015d57607f821691505b6020821081036200017e57634e487b7160e01b600052602260045260246000fd5b50919050565b601f821115620001d4576000816000526020600020601f850160051c81016020861015620001af5750805b601f850160051c820191505b81811015620001d057828155600101620001bb565b5050505b505050565b81516001600160401b03811115620001f557620001f562000132565b6200020d8162000206845462000148565b8462000184565b602080601f8311600181146200024557600084156200022c5750858301515b600019600386901b1c1916600185901b178555620001d0565b600085815260208120601f198616915b82811015620002765788860151825594840194600190910190840162000255565b5085821015620002955787850151600019600388901b60f8161c191681555b5050505050600190811b01905550565b60805160a05161285d620002e06000396000818161080b01528181610adf01526118da0152600081816105190152610b00015261285d6000f3fe6080604052600436106102fd5760003560e01c806393dd451e1161018f578063c3b754dc116100e1578063e34735801161008a578063f4f3b20011610064578063f4f3b200146108f0578063f89b764414610910578063fed1280b1461093057600080fd5b8063e347358014610890578063eb45261a146108b0578063f2fde38b146108d057600080fd5b8063d87744cf116100bb578063d87744cf1461082d578063dd62ed3e14610835578063e086e5ec1461087b57600080fd5b8063c3b754dc146107b9578063ccdfff53146107d9578063d34fd412146107f957600080fd5b8063a11a1add11610143578063b77cf9c61161011d578063b77cf9c614610740578063b89fc89e14610779578063c0973eed1461079957600080fd5b8063a11a1add146106df578063a9059cbb14610700578063a9c8d4881461072057600080fd5b80639b19251a116101745780639b19251a146106795780639bdd940c146106a9578063a0712d68146106bf57600080fd5b806393dd451e1461064457806395d89b411461066457600080fd5b806337fb7e211161025357806370a08231116101fc5780638da5cb5b116101d65780638da5cb5b146105fb578063918f8674146106195780639358928b1461062f57600080fd5b806370a0823114610590578063715018a6146105c65780638906758d146105db57600080fd5b806347786d371161022d57806347786d371461053b5780634fbee1241461055b5780636aae22031461057057600080fd5b806337fb7e211461049f578063391feebb146104d75780633bcfc4b81461050757600080fd5b80632260b83e116102b5578063343959b41161028f578063343959b41461044a578063355274ea1461046a5780633610724e1461047f57600080fd5b80632260b83e146103bb57806323b872dd1461040e578063313ce5671461042e57600080fd5b8063095ea7b3116102e6578063095ea7b31461035a5780630d392cd91461037a57806318160ddd1461039c57600080fd5b806302ce58131461030257806306fdde0314610338575b600080fd5b34801561030e57600080fd5b5060085461032390600160a81b900460ff1681565b60405190151581526020015b60405180910390f35b34801561034457600080fd5b5061034d610950565b60405161032f9190612592565b34801561036657600080fd5b506103236103753660046125e1565b6109e2565b34801561038657600080fd5b5061039a610395366004612619565b6109fc565b005b3480156103a857600080fd5b506002545b60405190815260200161032f565b3480156103c757600080fd5b506103db6103d6366004612650565b610a64565b60405161032f91908151815260208083015190820152604080830151908201526060918201519181019190915260800190565b34801561041a57600080fd5b5061032361042936600461266b565b610b80565b34801561043a57600080fd5b506040516012815260200161032f565b34801561045657600080fd5b5061039a610465366004612650565b610ba6565b34801561047657600080fd5b506005546103ad565b34801561048b57600080fd5b5061039a61049a3660046126a7565b610c37565b3480156104ab57600080fd5b506008546104bf906001600160a01b031681565b6040516001600160a01b03909116815260200161032f565b3480156104e357600080fd5b506103236104f2366004612650565b60116020526000908152604090205460ff1681565b34801561051357600080fd5b506103ad7f000000000000000000000000000000000000000000000000000000000000000081565b34801561054757600080fd5b5061039a6105563660046126a7565b610d7f565b34801561056757600080fd5b506103ad610dc7565b34801561057c57600080fd5b5061039a61058b366004612650565b610dfd565b34801561059c57600080fd5b506103ad6105ab366004612650565b6001600160a01b031660009081526020819052604090205490565b3480156105d257600080fd5b5061039a610e30565b3480156105e757600080fd5b5061039a6105f6366004612650565b610e44565b34801561060757600080fd5b506006546001600160a01b03166104bf565b34801561062557600080fd5b506103ad6103e881565b34801561063b57600080fd5b50600f546103ad565b34801561065057600080fd5b5061039a61065f3660046126a7565b610e77565b34801561067057600080fd5b5061034d610f57565b34801561068557600080fd5b50610323610694366004612650565b600a6020526000908152604090205460ff1681565b3480156106b557600080fd5b506103ad60095481565b3480156106cb57600080fd5b5061039a6106da3660046126a7565b610f66565b3480156106eb57600080fd5b5060085461032390600160a01b900460ff1681565b34801561070c57600080fd5b5061032361071b3660046125e1565b610fe6565b34801561072c57600080fd5b5061039a61073b3660046126a7565b610ff4565b34801561074c57600080fd5b506103ad61075b366004612650565b6001600160a01b031660009081526012602052604090206004015490565b34801561078557600080fd5b5061039a610794366004612650565b6110a7565b3480156107a557600080fd5b50600b546104bf906001600160a01b031681565b3480156107c557600080fd5b5061039a6107d43660046126c0565b611106565b3480156107e557600080fd5b5061039a6107f43660046126c0565b6111a7565b34801561080557600080fd5b506103ad7f000000000000000000000000000000000000000000000000000000000000000081565b61039a611248565b34801561084157600080fd5b506103ad6108503660046126dd565b6001600160a01b03918216600090815260016020908152604080832093909416825291909152205490565b34801561088757600080fd5b5061039a6113e8565b34801561089c57600080fd5b506103ad6108ab366004612650565b61148b565b3480156108bc57600080fd5b5061039a6108cb366004612619565b611496565b3480156108dc57600080fd5b5061039a6108eb366004612650565b6114ca565b3480156108fc57600080fd5b5061039a61090b366004612650565b61151e565b34801561091c57600080fd5b50600c546104bf906001600160a01b031681565b34801561093c57600080fd5b506103ad61094b366004612650565b61164d565b60606003805461095f90612710565b80601f016020809104026020016040519081016040528092919081815260200182805461098b90612710565b80156109d85780601f106109ad576101008083540402835291602001916109d8565b820191906000526020600020905b8154815290600101906020018083116109bb57829003601f168201915b5050505050905090565b6000336109f0818585611729565b60019150505b92915050565b610a0461173b565b6001600160a01b0382166000818152600a6020908152604091829020805460ff191685151590811790915591519182527ff93f9a76c1bf3444d22400a00cb9fe990e6abe9dbb333fda48859cfee864543d91015b60405180910390a25050565b610a8f6040518060800160405280600081526020016000815260200160008152602001600081525090565b6000610a9a83611781565b6001600160a01b03841660009081526012602052604081206004015491925090610ac49042612760565b90506000610ad86103e86301e13380612773565b8284610b247f00000000000000000000000000000000000000000000000000000000000000007f0000000000000000000000000000000000000000000000000000000000000000612760565b610b2e9190612773565b610b389190612773565b610b42919061278a565b90506000610b50848461183c565b90506040518060800160405280600081526020018381526020018281526020016000815250945050505050919050565b600033610b8e85828561191a565b610b998585856119b1565b60019150505b9392505050565b600b546001600160a01b03163314610c2b5760405162461bcd60e51b815260206004820152603560248201527f526577617264733a204f6e6c79207265776172647320636f6e7472616374206360448201527f616e2063616c6c20746869732066756e6374696f6e000000000000000000000060648201526084015b60405180910390fd5b610c3481611a29565b50565b600854600160a01b900460ff16610c905760405162461bcd60e51b815260206004820152601c60248201527f4162737472616374204c53543a20627579206e6f7420616374697665000000006044820152606401610c22565b600854600160a81b900460ff1615610d1157336000908152600a602052604090205460ff16610d115760405162461bcd60e51b815260206004820152602760248201527f4162737472616374204c53543a2063616c6c6572206973206e6f742077686974604482015266195b1a5cdd195960ca1b6064820152608401610c22565b60405162461bcd60e51b815260206004820152602760248201527f516574683a20427579696e67207769746820746f6b656e73206973206e6f742060448201527f616c6c6f776564000000000000000000000000000000000000000000000000006064820152608401610c22565b610d8761173b565b610d9081600555565b6040518181527fb42dbc56569dad594f79a8fa479f0b9b87b68602d1b8fc221d10b62bf703dbed906020015b60405180910390a150565b600e546000908190610dd99042612760565b600f54909150610dea908290612773565b601054610df791906127ac565b91505090565b610e0561173b565b600c805473ffffffffffffffffffffffffffffffffffffffff19166001600160a01b03831617905550565b610e3861173b565b610e426000611a67565b565b610e4c61173b565b600b805473ffffffffffffffffffffffffffffffffffffffff19166001600160a01b03831617905550565b600b546001600160a01b03163314610ef75760405162461bcd60e51b815260206004820152603560248201527f526577617264733a204f6e6c79207265776172647320636f6e7472616374206360448201527f616e2063616c6c20746869732066756e6374696f6e00000000000000000000006064820152608401610c22565b610f0081611ac6565b15610f4d5760405162461bcd60e51b815260206004820152601660248201527f516574683a204d696e74206578636565647320636170000000000000000000006044820152606401610c22565b610c343382611ae6565b60606004805461095f90612710565b600b546001600160a01b03163314610f4d5760405162461bcd60e51b815260206004820152603560248201527f526577617264733a204f6e6c79207265776172647320636f6e7472616374206360448201527f616e2063616c6c20746869732066756e6374696f6e00000000000000000000006064820152608401610c22565b6000336109f08185856119b1565b610ffc61173b565b600081116110725760405162461bcd60e51b815260206004820152602560248201527f4d696e20616d6f756e7420627579206d7573742062652067726561746572207460448201527f68616e20300000000000000000000000000000000000000000000000000000006064820152608401610c22565b60098190556040518181527f4d02ac2bfe90115b91d59c32ad6d07ea86d935aedb62055d844decbc0a6cb47190602001610dbc565b6110af61173b565b6008805473ffffffffffffffffffffffffffffffffffffffff19166001600160a01b0383169081179091556040517f8125853d25d6f68e074fb323e9f6e68b582733c9f03a78a2fda62e81d5d594f490600090a250565b61110e61173b565b6008805482158015600160a81b027fffffffffffffffffffff00ffffffffffffffffffffffffffffffffffffffffff909216919091179091556111795760405133907fe17ac05ff4095c2a1b270ddc6f70ea762311620bf4be3b1c2b0a9f4d5b16a53390600090a250565b60405133907f5a5fb1bb60b955fafbedf12a782cf1135ba3f37b851d547e79c04e55d1d9a2bb90600090a250565b6111af61173b565b6008805482158015600160a01b027fffffffffffffffffffffff00ffffffffffffffffffffffffffffffffffffffff9092169190911790915561121a5760405133907f414deba86f382e3da8ecf26ff472fe712d2e8489ed191afbb662b3d720cb4b4590600090a250565b60405133907fb474c7aee2343d3d4a0a18ecf7798a53688ce4d25cab70fbad7ea88866e881a590600090a250565b600854600160a01b900460ff166112a15760405162461bcd60e51b815260206004820152601c60248201527f4162737472616374204c53543a20627579206e6f7420616374697665000000006044820152606401610c22565b600854600160a81b900460ff161561132257336000908152600a602052604090205460ff166113225760405162461bcd60e51b815260206004820152602760248201527f4162737472616374204c53543a2063616c6c6572206973206e6f742077686974604482015266195b1a5cdd195960ca1b6064820152608401610c22565b3461132c81611ac6565b156113795760405162461bcd60e51b815260206004820152601560248201527f516574683a2042757920657863656564732063617000000000000000000000006044820152606401610c22565b6009543410156113cb5760405162461bcd60e51b815260206004820152601d60248201527f516574683a20496e73756666696369656e742062757920616d6f756e740000006044820152606401610c22565b6113d53382611ae6565b6113de34611b1c565b610c343382611c26565b6113f061173b565b60006114046006546001600160a01b031690565b6001600160a01b0316036114705760405162461bcd60e51b815260206004820152602d60248201527f41627374726163744c53543a206f776e65722063616e6e6f742062652074686560448201526c207a65726f206164647265737360981b6064820152608401610c22565b610e426114856006546001600160a01b031690565b47611c70565b60006109f682611781565b61149e61173b565b6001600160a01b0382166000908152601160205260409020805460ff19168215151790555050565b5050565b6114d261173b565b6001600160a01b038116611515576040517f1e4fbdf700000000000000000000000000000000000000000000000000000000815260006004820152602401610c22565b610c3481611a67565b61152661173b565b600061153a6006546001600160a01b031690565b6001600160a01b0316036115a65760405162461bcd60e51b815260206004820152602d60248201527f41627374726163744c53543a206f776e65722063616e6e6f742062652074686560448201526c207a65726f206164647265737360981b6064820152608401610c22565b610c346115bb6006546001600160a01b031690565b6040517f70a082310000000000000000000000000000000000000000000000000000000081523060048201526001600160a01b038416906370a0823190602401602060405180830381865afa158015611618573d6000803e3d6000fd5b505050506040513d601f19601f8201168201806040525081019061163c91906127bf565b6001600160a01b0384169190611d07565b6001600160a01b0381166000908152601260209081526040808320815160a0810183528154815260018201549381019390935260028101549183019190915260038101546060830152600401546080820181905282906116ad9042612760565b9050600081116116ff5760405162461bcd60e51b815260206004820152601860248201527f526577617264733a20436c61696d2074696d65206973203000000000000000006044820152606401610c22565b80826060015161170d610dc7565b6117179190612760565b611721919061278a565b949350505050565b6117368383836001611d87565b505050565b6006546001600160a01b03163314610e42576040517f118cdaa7000000000000000000000000000000000000000000000000000000008152336004820152602401610c22565b6001600160a01b0381166000908152601260209081526040808320815160a0810183528154815260018201549381019390935260028101549183019190915260038101546060830152600401546080820181905282906117e19042612760565b9050806000036117f5575060009392505050565b60008260200151426118079190612760565b90508181846000015161181a9190612773565b846040015161182991906127ac565b611833919061278a565b95945050505050565b600080600c60009054906101000a90046001600160a01b03166001600160a01b0316638df7756f6040518163ffffffff1660e01b8152600401602060405180830381865afa158015611892573d6000803e3d6000fd5b505050506040513d601f19601f820116820180604052508101906118b691906127bf565b9050806118c96103e86301e13380612773565b6118d39190612773565b836118fe867f0000000000000000000000000000000000000000000000000000000000000000612773565b6119089190612773565b61171790670de0b6b3a7640000612773565b6001600160a01b0383811660009081526001602090815260408083209386168352929052205460001981146119ab578181101561199c576040517ffb8f41b20000000000000000000000000000000000000000000000000000000081526001600160a01b03841660048201526024810182905260448101839052606401610c22565b6119ab84848484036000611d87565b50505050565b6001600160a01b0383166119f4576040517f96c6fd1e00000000000000000000000000000000000000000000000000000000815260006004820152602401610c22565b6001600160a01b038216611a1e5760405163ec442f0560e01b815260006004820152602401610c22565b611736838383611e8e565b6001600160a01b0381166000908152601260205260408120426004820181905560018201556002810191909155611a5e610dc7565b60039091015550565b600680546001600160a01b0383811673ffffffffffffffffffffffffffffffffffffffff19831681179093556040519116919082907f8be0079c531659141344cd1fd0a4f28419497f9722a3daafe3b4186f6b6457e090600090a35050565b600060055482611ad560025490565b611adf91906127ac565b1192915050565b6001600160a01b038216611b105760405163ec442f0560e01b815260006004820152602401610c22565b6114c660008383611e8e565b6008546001600160a01b0316611b9a5760405162461bcd60e51b815260206004820152602960248201527f4162737472616374204c53543a206469737472696275746f722061646472657360448201527f73206e6f742073657400000000000000000000000000000000000000000000006064820152608401610c22565b60008111611c105760405162461bcd60e51b815260206004820152602b60248201527f4162737472616374204c53543a20616d6f756e74206d7573742062652067726560448201527f61746572207468616e20300000000000000000000000000000000000000000006064820152608401610c22565b600854610c34906001600160a01b031682611c70565b816001600160a01b03167f0a37b72bb67eee30e09084cf386f8a17817c57f620c3ab95fb25d6a20356ec7782611c5b60025490565b60408051928352602083019190915201610a58565b80471015611c935760405163cd78605960e01b8152306004820152602401610c22565b6000826001600160a01b03168260405160006040518083038185875af1925050503d8060008114611ce0576040519150601f19603f3d011682016040523d82523d6000602084013e611ce5565b606091505b505090508061173657604051630a12f52160e11b815260040160405180910390fd5b604080516001600160a01b038416602482015260448082018490528251808303909101815260649091019091526020810180517bffffffffffffffffffffffffffffffffffffffffffffffffffffffff167fa9059cbb00000000000000000000000000000000000000000000000000000000179052611736908490611eb1565b6001600160a01b038416611dca576040517fe602df0500000000000000000000000000000000000000000000000000000000815260006004820152602401610c22565b6001600160a01b038316611e0d576040517f94280d6200000000000000000000000000000000000000000000000000000000815260006004820152602401610c22565b6001600160a01b03808516600090815260016020908152604080832093871683529290522082905580156119ab57826001600160a01b0316846001600160a01b03167f8c5be1e5ebec7d5bd14f71427d1e84f3dd0314c0f7b2291e5b200ac8c7c3b92584604051611e8091815260200190565b60405180910390a350505050565b611e99838383611f2d565b611ea583826000612070565b61173682826001612070565b6000611ec66001600160a01b03841683612176565b90508051600014158015611eeb575080806020019051810190611ee991906127d8565b155b15611736576040517f5274afe70000000000000000000000000000000000000000000000000000000081526001600160a01b0384166004820152602401610c22565b6001600160a01b038316611f58578060026000828254611f4d91906127ac565b90915550611fe39050565b6001600160a01b03831660009081526020819052604090205481811015611fc4576040517fe450d38c0000000000000000000000000000000000000000000000000000000081526001600160a01b03851660048201526024810182905260448101839052606401610c22565b6001600160a01b03841660009081526020819052604090209082900390555b6001600160a01b038216611fff5760028054829003905561201e565b6001600160a01b03821660009081526020819052604090208054820190555b816001600160a01b0316836001600160a01b03167fddf252ad1be2c89b69c2b068fc378daa952ba7f163c4a11628f55a4df523b3ef8360405161206391815260200190565b60405180910390a3505050565b61207b838383612184565b6001600160a01b0383161580612095575061209583612403565b1561209f57505050565b6001600160a01b0383166000908152601260205260408120600181015490919081036120df57600060028301556010546003830155426004830155612117565b60018201546120ee9042612760565b82549091506120fe908290612773565b82600201600082825461211191906127ac565b90915550505b600083600181111561212b5761212b6127f5565b0361214f57838260000160008282546121449190612760565b909155506121699050565b8382600001600082825461216391906127ac565b90915550505b5042600190910155505050565b6060610b9f83836000612433565b600e546000906121949042612760565b600f549091506121a5908290612773565b601080546000906121b79084906127ac565b90915550506001600160a01b0384166122375760008260018111156121de576121de6127f5565b036122035782600d60000160008282546121f891906127ac565b909155506122379050565b6001826001811115612217576122176127f5565b036122375782600d60000160008282546122319190612760565b90915550505b600061224285612403565b905080801561226857506001600160a01b03851660009081526012602052604090205415155b15612355576000836001811115612281576122816127f5565b036122c7576001600160a01b0385166000908152601260205260409020546122aa908590612760565b600f80546000906122bc908490612760565b9091555061231c9050565b60018360018111156122db576122db6127f5565b0361231c576001600160a01b0385166000908152601260205260409020546123049085906127ac565b600f8054600090612316908490612760565b90915550505b6001600160a01b0385166000908152601260205260408120818155600181018290556002810182905560038101829055600401556123f8565b6000836001811115612369576123696127f5565b14801561238457506001600160a01b03851615806123845750805b156123a95783600d600201600082825461239e91906127ac565b909155506123f89050565b60018360018111156123bd576123bd6127f5565b1480156123d857506001600160a01b03851615806123d85750805b156123f85783600d60020160008282546123f29190612760565b90915550505b505042600e55505050565b6001600160a01b03811660009081526011602052604081205460ff161561242c57506000919050565b503b151590565b6060814710156124585760405163cd78605960e01b8152306004820152602401610c22565b600080856001600160a01b03168486604051612474919061280b565b60006040518083038185875af1925050503d80600081146124b1576040519150601f19603f3d011682016040523d82523d6000602084013e6124b6565b606091505b50915091506124c68683836124d0565b9695505050505050565b6060826124e5576124e082612545565b610b9f565b81511580156124fc57506001600160a01b0384163b155b1561253e576040517f9996b3150000000000000000000000000000000000000000000000000000000081526001600160a01b0385166004820152602401610c22565b5080610b9f565b8051156125555780518082602001fd5b604051630a12f52160e11b815260040160405180910390fd5b60005b83811015612589578181015183820152602001612571565b50506000910152565b60208152600082518060208401526125b181604085016020870161256e565b601f01601f19169190910160400192915050565b80356001600160a01b03811681146125dc57600080fd5b919050565b600080604083850312156125f457600080fd5b6125fd836125c5565b946020939093013593505050565b8015158114610c3457600080fd5b6000806040838503121561262c57600080fd5b612635836125c5565b915060208301356126458161260b565b809150509250929050565b60006020828403121561266257600080fd5b610b9f826125c5565b60008060006060848603121561268057600080fd5b612689846125c5565b9250612697602085016125c5565b9150604084013590509250925092565b6000602082840312156126b957600080fd5b5035919050565b6000602082840312156126d257600080fd5b8135610b9f8161260b565b600080604083850312156126f057600080fd5b6126f9836125c5565b9150612707602084016125c5565b90509250929050565b600181811c9082168061272457607f821691505b60208210810361274457634e487b7160e01b600052602260045260246000fd5b50919050565b634e487b7160e01b600052601160045260246000fd5b818103818111156109f6576109f661274a565b80820281158282048414176109f6576109f661274a565b6000826127a757634e487b7160e01b600052601260045260246000fd5b500490565b808201808211156109f6576109f661274a565b6000602082840312156127d157600080fd5b5051919050565b6000602082840312156127ea57600080fd5b8151610b9f8161260b565b634e487b7160e01b600052602160045260246000fd5b6000825161281d81846020870161256e565b919091019291505056fea26469706673582212209f51a0ce4eaa318f984379ed7d3727ed27b2143fd635e692b3f43d8177b2cfae64736f6c63430008170033",
  "devdoc": {
    "author": "A Q T I S / @AQTIS-Team",
    "errors": {
      "AddressEmptyCode(address)": [
        {
          "details": "There's no code at `target` (it is not a contract)."
        }
      ],
      "AddressInsufficientBalance(address)": [
        {
          "details": "The ETH balance of the account is not enough to perform the operation."
        }
      ],
      "ERC20InsufficientAllowance(address,uint256,uint256)": [
        {
          "details": "Indicates a failure with the `spender`s `allowance`. Used in transfers.",
          "params": {
            "allowance": "Amount of tokens a `spender` is allowed to operate with.",
            "needed": "Minimum amount required to perform a transfer.",
            "spender": "Address that may be allowed to operate on tokens without being their owner."
          }
        }
      ],
      "ERC20InsufficientBalance(address,uint256,uint256)": [
        {
          "details": "Indicates an error related to the current `balance` of a `sender`. Used in transfers.",
          "params": {
            "balance": "Current balance for the interacting account.",
            "needed": "Minimum amount required to perform a transfer.",
            "sender": "Address whose tokens are being transferred."
          }
        }
      ],
      "ERC20InvalidApprover(address)": [
        {
          "details": "Indicates a failure with the `approver` of a token to be approved. Used in approvals.",
          "params": {
            "approver": "Address initiating an approval operation."
          }
        }
      ],
      "ERC20InvalidReceiver(address)": [
        {
          "details": "Indicates a failure with the token `receiver`. Used in transfers.",
          "params": {
            "receiver": "Address to which tokens are being transferred."
          }
        }
      ],
      "ERC20InvalidSender(address)": [
        {
          "details": "Indicates a failure with the token `sender`. Used in transfers.",
          "params": {
            "sender": "Address whose tokens are being transferred."
          }
        }
      ],
      "ERC20InvalidSpender(address)": [
        {
          "details": "Indicates a failure with the `spender` to be approved. Used in approvals.",
          "params": {
            "spender": "Address that may be allowed to operate on tokens without being their owner."
          }
        }
      ],
      "FailedInnerCall()": [
        {
          "details": "A call to an address target failed. The target may have reverted."
        }
      ],
      "OwnableInvalidOwner(address)": [
        {
          "details": "The owner is not a valid owner account. (eg. `address(0)`)"
        }
      ],
      "OwnableUnauthorizedAccount(address)": [
        {
          "details": "The caller account is not authorized to perform an operation."
        }
      ],
      "ReentrancyGuardReentrantCall()": [
        {
          "details": "Unauthorized reentrant call."
        }
      ],
      "SafeERC20FailedOperation(address)": [
        {
          "details": "An operation with an ERC20 token failed."
        }
      ]
    },
    "events": {
      "Approval(address,address,uint256)": {
        "details": "Emitted when the allowance of a `spender` for an `owner` is set by a call to {approve}. `value` is the new allowance."
      },
      "Transfer(address,address,uint256)": {
        "details": "Emitted when `value` tokens are moved from one account (`from`) to another (`to`). Note that `value` may be zero."
      }
    },
    "kind": "dev",
    "methods": {
      "allowance(address,address)": {
        "details": "See {IERC20-allowance}."
      },
      "approve(address,uint256)": {
        "details": "See {IERC20-approve}. NOTE: If `value` is the maximum `uint256`, the allowance is not updated on `transferFrom`. This is semantically equivalent to an infinite approval. Requirements: - `spender` cannot be the zero address."
      },
      "balanceOf(address)": {
        "details": "See {IERC20-balanceOf}."
      },
      "decimals()": {
        "details": "Returns the number of decimals used to get its user representation. For example, if `decimals` equals `2`, a balance of `505` tokens should be displayed to a user as `5.05` (`505 / 10 ** 2`). Tokens usually opt for a value of 18, imitating the relationship between Ether and Wei. This is the default value returned by this function, unless it's overridden. NOTE: This information is only used for _display_ purposes: it in no way affects any of the arithmetic of the contract, including {IERC20-balanceOf} and {IERC20-transfer}."
      },
      "name()": {
        "details": "Returns the name of the token."
      },
      "owner()": {
        "details": "Returns the address of the current owner."
      },
      "renounceOwnership()": {
        "details": "Leaves the contract without owner. It will not be possible to call `onlyOwner` functions. Can only be called by the current owner. NOTE: Renouncing ownership will leave the contract without an owner, thereby disabling any functionality that is only available to the owner."
      },
      "symbol()": {
        "details": "Returns the symbol of the token, usually a shorter version of the name."
      },
      "totalSupply()": {
        "details": "See {IERC20-totalSupply}."
      },
      "transfer(address,uint256)": {
        "details": "See {IERC20-transfer}. Requirements: - `to` cannot be the zero address. - the caller must have a balance of at least `value`."
      },
      "transferFrom(address,address,uint256)": {
        "details": "See {IERC20-transferFrom}. Emits an {Approval} event indicating the updated allowance. This is not required by the EIP. See the note at the beginning of {ERC20}. NOTE: Does not update the allowance if the current allowance is the maximum `uint256`. Requirements: - `from` and `to` cannot be the zero address. - `from` must have a balance of at least `value`. - the caller must have allowance for ``from``'s tokens of at least `value`."
      },
      "transferOwnership(address)": {
        "details": "Transfers ownership of the contract to a new account (`newOwner`). Can only be called by the current owner."
      },
      "withdrawERC20(address)": {
        "params": {
          "token": "The address of the ERC20 token to withdraw"
        }
      }
    },
    "title": "Quant Ethereum Contract",
    "version": 1
  },
  "userdoc": {
    "kind": "user",
    "methods": {
      "withdrawERC20(address)": {
        "notice": "Allows the owner to withdraw any ERC20 token from the contract"
      },
      "withdrawETH()": {
        "notice": "Allows the owner to withdraw stuck ETH from the contract"
      }
    },
    "notice": "This contract handles tokenomics for qETH",
    "version": 1
  },
  "storageLayout": {
    "storage": [
      {
        "astId": 307,
        "contract": "contracts/lst/Qeth.sol:Qeth",
        "label": "_balances",
        "offset": 0,
        "slot": "0",
        "type": "t_mapping(t_address,t_uint256)"
      },
      {
        "astId": 313,
        "contract": "contracts/lst/Qeth.sol:Qeth",
        "label": "_allowances",
        "offset": 0,
        "slot": "1",
        "type": "t_mapping(t_address,t_mapping(t_address,t_uint256))"
      },
      {
        "astId": 315,
        "contract": "contracts/lst/Qeth.sol:Qeth",
        "label": "_totalSupply",
        "offset": 0,
        "slot": "2",
        "type": "t_uint256"
      },
      {
        "astId": 317,
        "contract": "contracts/lst/Qeth.sol:Qeth",
        "label": "_name",
        "offset": 0,
        "slot": "3",
        "type": "t_string_storage"
      },
      {
        "astId": 319,
        "contract": "contracts/lst/Qeth.sol:Qeth",
        "label": "_symbol",
        "offset": 0,
        "slot": "4",
        "type": "t_string_storage"
      },
      {
        "astId": 15151,
        "contract": "contracts/lst/Qeth.sol:Qeth",
        "label": "_cap",
        "offset": 0,
        "slot": "5",
        "type": "t_uint256"
      },
      {
        "astId": 8,
        "contract": "contracts/lst/Qeth.sol:Qeth",
        "label": "_owner",
        "offset": 0,
        "slot": "6",
        "type": "t_address"
      },
      {
        "astId": 1700,
        "contract": "contracts/lst/Qeth.sol:Qeth",
        "label": "_status",
        "offset": 0,
        "slot": "7",
        "type": "t_uint256"
      },
      {
        "astId": 9274,
        "contract": "contracts/lst/Qeth.sol:Qeth",
        "label": "distributionAddress",
        "offset": 0,
        "slot": "8",
        "type": "t_address"
      },
      {
        "astId": 9276,
        "contract": "contracts/lst/Qeth.sol:Qeth",
        "label": "buyActive",
        "offset": 20,
        "slot": "8",
        "type": "t_bool"
      },
      {
        "astId": 9278,
        "contract": "contracts/lst/Qeth.sol:Qeth",
        "label": "whitelistActive",
        "offset": 21,
        "slot": "8",
        "type": "t_bool"
      },
      {
        "astId": 9280,
        "contract": "contracts/lst/Qeth.sol:Qeth",
        "label": "minAmountBuy",
        "offset": 0,
        "slot": "9",
        "type": "t_uint256"
      },
      {
        "astId": 9284,
        "contract": "contracts/lst/Qeth.sol:Qeth",
        "label": "whitelist",
        "offset": 0,
        "slot": "10",
        "type": "t_mapping(t_address,t_bool)"
      },
      {
        "astId": 10569,
        "contract": "contracts/lst/Qeth.sol:Qeth",
        "label": "rewardsAddress",
        "offset": 0,
        "slot": "11",
        "type": "t_address"
      },
      {
        "astId": 10572,
        "contract": "contracts/lst/Qeth.sol:Qeth",
        "label": "tokenPriceCalculator",
        "offset": 0,
        "slot": "12",
        "type": "t_contract(ITokenPriceCalculator)8519"
      },
      {
        "astId": 10591,
        "contract": "contracts/lst/Qeth.sol:Qeth",
        "label": "_supply",
        "offset": 0,
        "slot": "13",
        "type": "t_struct(Supply)10588_storage"
      },
      {
        "astId": 10595,
        "contract": "contracts/lst/Qeth.sol:Qeth",
        "label": "whitelistedContracts",
        "offset": 0,
        "slot": "17",
        "type": "t_mapping(t_address,t_bool)"
      },
      {
        "astId": 10628,
        "contract": "contracts/lst/Qeth.sol:Qeth",
        "label": "_userRecords",
        "offset": 0,
        "slot": "18",
        "type": "t_mapping(t_address,t_struct(UserRecord)10567_storage)"
      }
    ],
    "types": {
      "t_address": {
        "encoding": "inplace",
        "label": "address",
        "numberOfBytes": "20"
      },
      "t_bool": {
        "encoding": "inplace",
        "label": "bool",
        "numberOfBytes": "1"
      },
      "t_contract(ITokenPriceCalculator)8519": {
        "encoding": "inplace",
        "label": "contract ITokenPriceCalculator",
        "numberOfBytes": "20"
      },
      "t_mapping(t_address,t_bool)": {
        "encoding": "mapping",
        "key": "t_address",
        "label": "mapping(address => bool)",
        "numberOfBytes": "32",
        "value": "t_bool"
      },
      "t_mapping(t_address,t_mapping(t_address,t_uint256))": {
        "encoding": "mapping",
        "key": "t_address",
        "label": "mapping(address => mapping(address => uint256))",
        "numberOfBytes": "32",
        "value": "t_mapping(t_address,t_uint256)"
      },
      "t_mapping(t_address,t_struct(UserRecord)10567_storage)": {
        "encoding": "mapping",
        "key": "t_address",
        "label": "mapping(address => struct AbstractRewards.UserRecord)",
        "numberOfBytes": "32",
        "value": "t_struct(UserRecord)10567_storage"
      },
      "t_mapping(t_address,t_uint256)": {
        "encoding": "mapping",
        "key": "t_address",
        "label": "mapping(address => uint256)",
        "numberOfBytes": "32",
        "value": "t_uint256"
      },
      "t_string_storage": {
        "encoding": "bytes",
        "label": "string",
        "numberOfBytes": "32"
      },
      "t_struct(Supply)10588_storage": {
        "encoding": "inplace",
        "label": "struct AbstractRewards.Supply",
        "members": [
          {
            "astId": 10581,
            "contract": "contracts/lst/Qeth.sol:Qeth",
            "label": "totalSupply",
            "offset": 0,
            "slot": "0",
            "type": "t_uint256"
          },
          {
            "astId": 10583,
            "contract": "contracts/lst/Qeth.sol:Qeth",
            "label": "lastUpdateTime",
            "offset": 0,
            "slot": "1",
            "type": "t_uint256"
          },
          {
            "astId": 10585,
            "contract": "contracts/lst/Qeth.sol:Qeth",
            "label": "currentCirculatingSupply",
            "offset": 0,
            "slot": "2",
            "type": "t_uint256"
          },
          {
            "astId": 10587,
            "contract": "contracts/lst/Qeth.sol:Qeth",
            "label": "cumulativeCirculatingSupply",
            "offset": 0,
            "slot": "3",
            "type": "t_uint256"
          }
        ],
        "numberOfBytes": "128"
      },
      "t_struct(UserRecord)10567_storage": {
        "encoding": "inplace",
        "label": "struct AbstractRewards.UserRecord",
        "members": [
          {
            "astId": 10558,
            "contract": "contracts/lst/Qeth.sol:Qeth",
            "label": "userBalance",
            "offset": 0,
            "slot": "0",
            "type": "t_uint256"
          },
          {
            "astId": 10560,
            "contract": "contracts/lst/Qeth.sol:Qeth",
            "label": "lastUpdateTime",
            "offset": 0,
            "slot": "1",
            "type": "t_uint256"
          },
          {
            "astId": 10562,
            "contract": "contracts/lst/Qeth.sol:Qeth",
            "label": "cumulativeBalance",
            "offset": 0,
            "slot": "2",
            "type": "t_uint256"
          },
          {
            "astId": 10564,
            "contract": "contracts/lst/Qeth.sol:Qeth",
            "label": "cumCirculatingSupplyLastClaim",
            "offset": 0,
            "slot": "3",
            "type": "t_uint256"
          },
          {
            "astId": 10566,
            "contract": "contracts/lst/Qeth.sol:Qeth",
            "label": "lastClaimTime",
            "offset": 0,
            "slot": "4",
            "type": "t_uint256"
          }
        ],
        "numberOfBytes": "160"
      },
      "t_uint256": {
        "encoding": "inplace",
        "label": "uint256",
        "numberOfBytes": "32"
      }
    }
  }
}