{
  "address": "0x890C32ea99ceb0De94600c421745FC8131750514",
  "abi": [
    {
      "inputs": [
        {
          "internalType": "address",
          "name": "_usd",
          "type": "address"
        }
      ],
      "stateMutability": "nonpayable",
      "type": "constructor"
    },
    {
      "inputs": [
        {
          "internalType": "address",
          "name": "target",
          "type": "address"
        }
      ],
      "name": "AddressEmptyCode",
      "type": "error"
    },
    {
      "inputs": [
        {
          "internalType": "address",
          "name": "account",
          "type": "address"
        }
      ],
      "name": "AddressInsufficientBalance",
      "type": "error"
    },
    {
      "inputs": [
        {
          "internalType": "address",
          "name": "spender",
          "type": "address"
        },
        {
          "internalType": "uint256",
          "name": "allowance",
          "type": "uint256"
        },
        {
          "internalType": "uint256",
          "name": "needed",
          "type": "uint256"
        }
      ],
      "name": "ERC20InsufficientAllowance",
      "type": "error"
    },
    {
      "inputs": [
        {
          "internalType": "address",
          "name": "sender",
          "type": "address"
        },
        {
          "internalType": "uint256",
          "name": "balance",
          "type": "uint256"
        },
        {
          "internalType": "uint256",
          "name": "needed",
          "type": "uint256"
        }
      ],
      "name": "ERC20InsufficientBalance",
      "type": "error"
    },
    {
      "inputs": [
        {
          "internalType": "address",
          "name": "approver",
          "type": "address"
        }
      ],
      "name": "ERC20InvalidApprover",
      "type": "error"
    },
    {
      "inputs": [
        {
          "internalType": "address",
          "name": "receiver",
          "type": "address"
        }
      ],
      "name": "ERC20InvalidReceiver",
      "type": "error"
    },
    {
      "inputs": [
        {
          "internalType": "address",
          "name": "sender",
          "type": "address"
        }
      ],
      "name": "ERC20InvalidSender",
      "type": "error"
    },
    {
      "inputs": [
        {
          "internalType": "address",
          "name": "spender",
          "type": "address"
        }
      ],
      "name": "ERC20InvalidSpender",
      "type": "error"
    },
    {
      "inputs": [],
      "name": "FailedInnerCall",
      "type": "error"
    },
    {
      "inputs": [
        {
          "internalType": "address",
          "name": "owner",
          "type": "address"
        }
      ],
      "name": "OwnableInvalidOwner",
      "type": "error"
    },
    {
      "inputs": [
        {
          "internalType": "address",
          "name": "account",
          "type": "address"
        }
      ],
      "name": "OwnableUnauthorizedAccount",
      "type": "error"
    },
    {
      "inputs": [],
      "name": "ReentrancyGuardReentrantCall",
      "type": "error"
    },
    {
      "inputs": [
        {
          "internalType": "address",
          "name": "token",
          "type": "address"
        }
      ],
      "name": "SafeERC20FailedOperation",
      "type": "error"
    },
    {
      "anonymous": false,
      "inputs": [
        {
          "indexed": true,
          "internalType": "address",
          "name": "owner",
          "type": "address"
        },
        {
          "indexed": true,
          "internalType": "address",
          "name": "spender",
          "type": "address"
        },
        {
          "indexed": false,
          "internalType": "uint256",
          "name": "value",
          "type": "uint256"
        }
      ],
      "name": "Approval",
      "type": "event"
    },
    {
      "anonymous": false,
      "inputs": [
        {
          "indexed": true,
          "internalType": "address",
          "name": "activator",
          "type": "address"
        }
      ],
      "name": "BuyActivated",
      "type": "event"
    },
    {
      "anonymous": false,
      "inputs": [
        {
          "indexed": true,
          "internalType": "address",
          "name": "deactivator",
          "type": "address"
        }
      ],
      "name": "BuyDeactivated",
      "type": "event"
    },
    {
      "anonymous": false,
      "inputs": [
        {
          "indexed": true,
          "internalType": "address",
          "name": "user",
          "type": "address"
        },
        {
          "indexed": false,
          "internalType": "uint256",
          "name": "amount",
          "type": "uint256"
        },
        {
          "indexed": false,
          "internalType": "uint256",
          "name": "newTotalSupply",
          "type": "uint256"
        }
      ],
      "name": "BuyTokens",
      "type": "event"
    },
    {
      "anonymous": false,
      "inputs": [
        {
          "indexed": true,
          "internalType": "address",
          "name": "newDistributionAddress",
          "type": "address"
        }
      ],
      "name": "DistributionAddressUpdated",
      "type": "event"
    },
    {
      "anonymous": false,
      "inputs": [
        {
          "indexed": false,
          "internalType": "uint256",
          "name": "newMinAmountBuy",
          "type": "uint256"
        }
      ],
      "name": "MinAmountBuyChanged",
      "type": "event"
    },
    {
      "anonymous": false,
      "inputs": [
        {
          "indexed": true,
          "internalType": "address",
          "name": "previousOwner",
          "type": "address"
        },
        {
          "indexed": true,
          "internalType": "address",
          "name": "newOwner",
          "type": "address"
        }
      ],
      "name": "OwnershipTransferred",
      "type": "event"
    },
    {
      "anonymous": false,
      "inputs": [
        {
          "indexed": false,
          "internalType": "uint256",
          "name": "newSoftMaxSupply",
          "type": "uint256"
        }
      ],
      "name": "SoftMaxSupplyChanged",
      "type": "event"
    },
    {
      "anonymous": false,
      "inputs": [
        {
          "indexed": true,
          "internalType": "address",
          "name": "from",
          "type": "address"
        },
        {
          "indexed": true,
          "internalType": "address",
          "name": "to",
          "type": "address"
        },
        {
          "indexed": false,
          "internalType": "uint256",
          "name": "value",
          "type": "uint256"
        }
      ],
      "name": "Transfer",
      "type": "event"
    },
    {
      "anonymous": false,
      "inputs": [
        {
          "indexed": true,
          "internalType": "address",
          "name": "activator",
          "type": "address"
        }
      ],
      "name": "WhitelistActivated",
      "type": "event"
    },
    {
      "anonymous": false,
      "inputs": [
        {
          "indexed": true,
          "internalType": "address",
          "name": "deactivator",
          "type": "address"
        }
      ],
      "name": "WhitelistDeactivated",
      "type": "event"
    },
    {
      "anonymous": false,
      "inputs": [
        {
          "indexed": true,
          "internalType": "address",
          "name": "addr",
          "type": "address"
        },
        {
          "indexed": false,
          "internalType": "bool",
          "name": "whitelisted",
          "type": "bool"
        }
      ],
      "name": "WhitelistUpdated",
      "type": "event"
    },
    {
      "inputs": [],
      "name": "DENOMINATOR",
      "outputs": [
        {
          "internalType": "uint256",
          "name": "",
          "type": "uint256"
        }
      ],
      "stateMutability": "view",
      "type": "function"
    },
    {
      "inputs": [],
      "name": "QSD_PRICE",
      "outputs": [
        {
          "internalType": "uint256",
          "name": "",
          "type": "uint256"
        }
      ],
      "stateMutability": "view",
      "type": "function"
    },
    {
      "inputs": [
        {
          "internalType": "address",
          "name": "owner",
          "type": "address"
        },
        {
          "internalType": "address",
          "name": "spender",
          "type": "address"
        }
      ],
      "name": "allowance",
      "outputs": [
        {
          "internalType": "uint256",
          "name": "",
          "type": "uint256"
        }
      ],
      "stateMutability": "view",
      "type": "function"
    },
    {
      "inputs": [
        {
          "internalType": "address",
          "name": "spender",
          "type": "address"
        },
        {
          "internalType": "uint256",
          "name": "value",
          "type": "uint256"
        }
      ],
      "name": "approve",
      "outputs": [
        {
          "internalType": "bool",
          "name": "",
          "type": "bool"
        }
      ],
      "stateMutability": "nonpayable",
      "type": "function"
    },
    {
      "inputs": [],
      "name": "apy",
      "outputs": [
        {
          "internalType": "uint256",
          "name": "",
          "type": "uint256"
        }
      ],
      "stateMutability": "view",
      "type": "function"
    },
    {
      "inputs": [],
      "name": "aqtisApy",
      "outputs": [
        {
          "internalType": "uint256",
          "name": "",
          "type": "uint256"
        }
      ],
      "stateMutability": "view",
      "type": "function"
    },
    {
      "inputs": [
        {
          "internalType": "address",
          "name": "account",
          "type": "address"
        }
      ],
      "name": "balanceOf",
      "outputs": [
        {
          "internalType": "uint256",
          "name": "",
          "type": "uint256"
        }
      ],
      "stateMutability": "view",
      "type": "function"
    },
    {
      "inputs": [],
      "name": "buyActive",
      "outputs": [
        {
          "internalType": "bool",
          "name": "",
          "type": "bool"
        }
      ],
      "stateMutability": "view",
      "type": "function"
    },
    {
      "inputs": [
        {
          "internalType": "uint256",
          "name": "amount",
          "type": "uint256"
        }
      ],
      "name": "buyTokens",
      "outputs": [],
      "stateMutability": "nonpayable",
      "type": "function"
    },
    {
      "inputs": [],
      "name": "buyTokensWithEth",
      "outputs": [],
      "stateMutability": "payable",
      "type": "function"
    },
    {
      "inputs": [
        {
          "internalType": "uint256",
          "name": "ethAmount",
          "type": "uint256"
        }
      ],
      "name": "calculateTokensToMintWithEth",
      "outputs": [
        {
          "internalType": "uint256",
          "name": "",
          "type": "uint256"
        }
      ],
      "stateMutability": "view",
      "type": "function"
    },
    {
      "inputs": [
        {
          "internalType": "uint256",
          "name": "amount",
          "type": "uint256"
        }
      ],
      "name": "calculateTokensToMintWithUSD",
      "outputs": [
        {
          "internalType": "uint256",
          "name": "",
          "type": "uint256"
        }
      ],
      "stateMutability": "view",
      "type": "function"
    },
    {
      "inputs": [],
      "name": "cap",
      "outputs": [
        {
          "internalType": "uint256",
          "name": "",
          "type": "uint256"
        }
      ],
      "stateMutability": "view",
      "type": "function"
    },
    {
      "inputs": [],
      "name": "circulatingSupply",
      "outputs": [
        {
          "internalType": "uint256",
          "name": "",
          "type": "uint256"
        }
      ],
      "stateMutability": "view",
      "type": "function"
    },
    {
      "inputs": [],
      "name": "cumulativeCirculatingSupply",
      "outputs": [
        {
          "internalType": "uint256",
          "name": "",
          "type": "uint256"
        }
      ],
      "stateMutability": "view",
      "type": "function"
    },
    {
      "inputs": [],
      "name": "decimals",
      "outputs": [
        {
          "internalType": "uint8",
          "name": "",
          "type": "uint8"
        }
      ],
      "stateMutability": "view",
      "type": "function"
    },
    {
      "inputs": [],
      "name": "distributionAddress",
      "outputs": [
        {
          "internalType": "address",
          "name": "",
          "type": "address"
        }
      ],
      "stateMutability": "view",
      "type": "function"
    },
    {
      "inputs": [
        {
          "internalType": "address",
          "name": "user",
          "type": "address"
        }
      ],
      "name": "getRewardsFor",
      "outputs": [
        {
          "components": [
            {
              "internalType": "uint256",
              "name": "usdcRewards",
              "type": "uint256"
            },
            {
              "internalType": "uint256",
              "name": "ethRewards",
              "type": "uint256"
            },
            {
              "internalType": "uint256",
              "name": "aqtisRewards",
              "type": "uint256"
            },
            {
              "internalType": "uint256",
              "name": "cappedLSTRewards",
              "type": "uint256"
            }
          ],
          "internalType": "struct IRewards.RewardsDistribution",
          "name": "",
          "type": "tuple"
        }
      ],
      "stateMutability": "view",
      "type": "function"
    },
    {
      "inputs": [
        {
          "internalType": "address",
          "name": "user",
          "type": "address"
        }
      ],
      "name": "lastClaimTime",
      "outputs": [
        {
          "internalType": "uint256",
          "name": "",
          "type": "uint256"
        }
      ],
      "stateMutability": "view",
      "type": "function"
    },
    {
      "inputs": [],
      "name": "minAmountBuy",
      "outputs": [
        {
          "internalType": "uint256",
          "name": "",
          "type": "uint256"
        }
      ],
      "stateMutability": "view",
      "type": "function"
    },
    {
      "inputs": [
        {
          "internalType": "uint256",
          "name": "amount",
          "type": "uint256"
        }
      ],
      "name": "mint",
      "outputs": [],
      "stateMutability": "nonpayable",
      "type": "function"
    },
    {
      "inputs": [
        {
          "internalType": "uint256",
          "name": "amount",
          "type": "uint256"
        }
      ],
      "name": "mintWithCap",
      "outputs": [],
      "stateMutability": "nonpayable",
      "type": "function"
    },
    {
      "inputs": [],
      "name": "name",
      "outputs": [
        {
          "internalType": "string",
          "name": "",
          "type": "string"
        }
      ],
      "stateMutability": "view",
      "type": "function"
    },
    {
      "inputs": [],
      "name": "owner",
      "outputs": [
        {
          "internalType": "address",
          "name": "",
          "type": "address"
        }
      ],
      "stateMutability": "view",
      "type": "function"
    },
    {
      "inputs": [],
      "name": "renounceOwnership",
      "outputs": [],
      "stateMutability": "nonpayable",
      "type": "function"
    },
    {
      "inputs": [
        {
          "internalType": "address",
          "name": "user",
          "type": "address"
        }
      ],
      "name": "resetUser",
      "outputs": [],
      "stateMutability": "nonpayable",
      "type": "function"
    },
    {
      "inputs": [],
      "name": "rewardsAddress",
      "outputs": [
        {
          "internalType": "address",
          "name": "",
          "type": "address"
        }
      ],
      "stateMutability": "view",
      "type": "function"
    },
    {
      "inputs": [
        {
          "internalType": "bool",
          "name": "_buyActive",
          "type": "bool"
        }
      ],
      "name": "setBuyActive",
      "outputs": [],
      "stateMutability": "nonpayable",
      "type": "function"
    },
    {
      "inputs": [
        {
          "internalType": "uint256",
          "name": "_newCap",
          "type": "uint256"
        }
      ],
      "name": "setCap",
      "outputs": [],
      "stateMutability": "nonpayable",
      "type": "function"
    },
    {
      "inputs": [
        {
          "internalType": "address",
          "name": "_contract",
          "type": "address"
        },
        {
          "internalType": "bool",
          "name": "_whitelisted",
          "type": "bool"
        }
      ],
      "name": "setContractRewardsWhitelist",
      "outputs": [],
      "stateMutability": "nonpayable",
      "type": "function"
    },
    {
      "inputs": [
        {
          "internalType": "address",
          "name": "_distributionAddress",
          "type": "address"
        }
      ],
      "name": "setDistributionAddress",
      "outputs": [],
      "stateMutability": "nonpayable",
      "type": "function"
    },
    {
      "inputs": [
        {
          "internalType": "uint256",
          "name": "_newMinAmountBuy",
          "type": "uint256"
        }
      ],
      "name": "setMinAmountBuy",
      "outputs": [],
      "stateMutability": "nonpayable",
      "type": "function"
    },
    {
      "inputs": [
        {
          "internalType": "address",
          "name": "_rewardsAddress",
          "type": "address"
        }
      ],
      "name": "setRewardsAddress",
      "outputs": [],
      "stateMutability": "nonpayable",
      "type": "function"
    },
    {
      "inputs": [
        {
          "internalType": "address",
          "name": "_tokenPriceCalculator",
          "type": "address"
        }
      ],
      "name": "setTokenPriceCalculator",
      "outputs": [],
      "stateMutability": "nonpayable",
      "type": "function"
    },
    {
      "inputs": [
        {
          "internalType": "bool",
          "name": "_whitelistActive",
          "type": "bool"
        }
      ],
      "name": "setWhitelistActive",
      "outputs": [],
      "stateMutability": "nonpayable",
      "type": "function"
    },
    {
      "inputs": [],
      "name": "symbol",
      "outputs": [
        {
          "internalType": "string",
          "name": "",
          "type": "string"
        }
      ],
      "stateMutability": "view",
      "type": "function"
    },
    {
      "inputs": [],
      "name": "tokenPriceCalculator",
      "outputs": [
        {
          "internalType": "contract ITokenPriceCalculator",
          "name": "",
          "type": "address"
        }
      ],
      "stateMutability": "view",
      "type": "function"
    },
    {
      "inputs": [],
      "name": "totalSupply",
      "outputs": [
        {
          "internalType": "uint256",
          "name": "",
          "type": "uint256"
        }
      ],
      "stateMutability": "view",
      "type": "function"
    },
    {
      "inputs": [
        {
          "internalType": "address",
          "name": "to",
          "type": "address"
        },
        {
          "internalType": "uint256",
          "name": "value",
          "type": "uint256"
        }
      ],
      "name": "transfer",
      "outputs": [
        {
          "internalType": "bool",
          "name": "",
          "type": "bool"
        }
      ],
      "stateMutability": "nonpayable",
      "type": "function"
    },
    {
      "inputs": [
        {
          "internalType": "address",
          "name": "from",
          "type": "address"
        },
        {
          "internalType": "address",
          "name": "to",
          "type": "address"
        },
        {
          "internalType": "uint256",
          "name": "value",
          "type": "uint256"
        }
      ],
      "name": "transferFrom",
      "outputs": [
        {
          "internalType": "bool",
          "name": "",
          "type": "bool"
        }
      ],
      "stateMutability": "nonpayable",
      "type": "function"
    },
    {
      "inputs": [
        {
          "internalType": "address",
          "name": "newOwner",
          "type": "address"
        }
      ],
      "name": "transferOwnership",
      "outputs": [],
      "stateMutability": "nonpayable",
      "type": "function"
    },
    {
      "inputs": [
        {
          "internalType": "address",
          "name": "user",
          "type": "address"
        }
      ],
      "name": "twaCircSupplySinceLastClaim",
      "outputs": [
        {
          "internalType": "uint256",
          "name": "",
          "type": "uint256"
        }
      ],
      "stateMutability": "view",
      "type": "function"
    },
    {
      "inputs": [
        {
          "internalType": "address",
          "name": "_addr",
          "type": "address"
        },
        {
          "internalType": "bool",
          "name": "_whitelisted",
          "type": "bool"
        }
      ],
      "name": "updateWhitelist",
      "outputs": [],
      "stateMutability": "nonpayable",
      "type": "function"
    },
    {
      "inputs": [],
      "name": "usdAddress",
      "outputs": [
        {
          "internalType": "address",
          "name": "",
          "type": "address"
        }
      ],
      "stateMutability": "view",
      "type": "function"
    },
    {
      "inputs": [
        {
          "internalType": "address",
          "name": "user",
          "type": "address"
        }
      ],
      "name": "userTWAB",
      "outputs": [
        {
          "internalType": "uint256",
          "name": "",
          "type": "uint256"
        }
      ],
      "stateMutability": "view",
      "type": "function"
    },
    {
      "inputs": [
        {
          "internalType": "address",
          "name": "",
          "type": "address"
        }
      ],
      "name": "whitelist",
      "outputs": [
        {
          "internalType": "bool",
          "name": "",
          "type": "bool"
        }
      ],
      "stateMutability": "view",
      "type": "function"
    },
    {
      "inputs": [],
      "name": "whitelistActive",
      "outputs": [
        {
          "internalType": "bool",
          "name": "",
          "type": "bool"
        }
      ],
      "stateMutability": "view",
      "type": "function"
    },
    {
      "inputs": [
        {
          "internalType": "address",
          "name": "",
          "type": "address"
        }
      ],
      "name": "whitelistedContracts",
      "outputs": [
        {
          "internalType": "bool",
          "name": "",
          "type": "bool"
        }
      ],
      "stateMutability": "view",
      "type": "function"
    },
    {
      "inputs": [
        {
          "internalType": "address",
          "name": "token",
          "type": "address"
        }
      ],
      "name": "withdrawERC20",
      "outputs": [],
      "stateMutability": "nonpayable",
      "type": "function"
    },
    {
      "inputs": [],
      "name": "withdrawETH",
      "outputs": [],
      "stateMutability": "nonpayable",
      "type": "function"
    }
  ],
  "transactionHash": "0xbb39b99a88e2111e0389cbc6692743bba6b9d3fa3c09eb0f66545bb723ba1e05",
  "args": [
    "0xA0b86991c6218b36c1d19D4a2e9Eb0cE3606eB48"
  ],
  "numDeployments": 1,
  "solcInputHash": "9087a8a1961bde39b6a21ecb15b711d3",
  "bytecode": "0x60e06040523480156200001157600080fd5b5060405162002f8c38038062002f8c833981016040819052620000349162000169565b6096601981816040518060400160405280601281526020017128bab0b73a1029ba30ba32902237b63630b960711b815250604051806040016040528060038152602001621454d160ea1b81525066038d7ea4c680003383838382828160039081620000a0919062000242565b506004620000af828262000242565b50505060055550506001600160a01b038116620000e657604051631e4fbdf760e01b81526000600482015260240160405180910390fd5b620000f18162000117565b50506001600755505060809190915260a05250506001600160a01b031660c0526200030e565b600680546001600160a01b038381166001600160a01b0319831681179093556040519116919082907f8be0079c531659141344cd1fd0a4f28419497f9722a3daafe3b4186f6b6457e090600090a35050565b6000602082840312156200017c57600080fd5b81516001600160a01b03811681146200019457600080fd5b9392505050565b634e487b7160e01b600052604160045260246000fd5b600181811c90821680620001c657607f821691505b602082108103620001e757634e487b7160e01b600052602260045260246000fd5b50919050565b601f8211156200023d576000816000526020600020601f850160051c81016020861015620002185750805b601f850160051c820191505b81811015620002395782815560010162000224565b5050505b505050565b81516001600160401b038111156200025e576200025e6200019b565b62000276816200026f8454620001b1565b84620001ed565b602080601f831160018114620002ae5760008415620002955750858301515b600019600386901b1c1916600185901b17855562000239565b600085815260208120601f198616915b82811015620002df57888601518255948401946001909101908401620002be565b5085821015620002fe5787850151600019600388901b60f8161c191681555b5050505050600190811b01905550565b60805160a05160c051612c2b620003616000396000818161075201528181610fbc0152610ff30152600081816108c001528181610b940152611b880152600081816105850152610bb50152612c2b6000f3fe6080604052600436106103295760003560e01c80639358928b116101a5578063c0973eed116100ec578063e086e5ec11610095578063f2fde38b1161006f578063f2fde38b14610985578063f4f3b200146109a5578063f89b7644146109c5578063fed1280b146109e557600080fd5b8063e086e5ec14610930578063e347358014610945578063eb45261a1461096557600080fd5b8063d34fd412116100c6578063d34fd412146108ae578063d87744cf146108e2578063dd62ed3e146108ea57600080fd5b8063c0973eed1461084e578063c3b754dc1461086e578063ccdfff531461088e57600080fd5b8063a0712d681161014e578063a9c8d48811610128578063a9c8d488146107d5578063b77cf9c6146107f5578063b89fc89e1461082e57600080fd5b8063a0712d6814610774578063a11a1add14610794578063a9059cbb146107b557600080fd5b80639b19251a1161017f5780639b19251a146106fa5780639bdd940c1461072a5780639e1a86131461074057600080fd5b80639358928b146106b057806393dd451e146106c557806395d89b41146106e557600080fd5b80633610724e116102745780636aae22031161021d57806383e193a6116101f757806383e193a6146106475780638906758d1461065c5780638da5cb5b1461067c578063918f86741461069a57600080fd5b80636aae2203146105dc57806370a08231146105fc578063715018a61461063257600080fd5b80633bcfc4b81161024e5780633bcfc4b81461057357806347786d37146105a75780634fbee124146105c757600080fd5b80633610724e146104eb57806337fb7e211461050b578063391feebb1461054357600080fd5b806323b872dd116102d6578063343959b4116102b0578063343959b414610496578063353d224b146104b6578063355274ea146104d657600080fd5b806323b872dd1461043a57806328a659101461045a578063313ce5671461047a57600080fd5b80630d392cd9116103075780630d392cd9146103a657806318160ddd146103c85780632260b83e146103e757600080fd5b806302ce58131461032e57806306fdde0314610364578063095ea7b314610386575b600080fd5b34801561033a57600080fd5b5060085461034f90600160a81b900460ff1681565b60405190151581526020015b60405180910390f35b34801561037057600080fd5b50610379610a05565b60405161035b9190612960565b34801561039257600080fd5b5061034f6103a13660046129af565b610a97565b3480156103b257600080fd5b506103c66103c13660046129e7565b610ab1565b005b3480156103d457600080fd5b506002545b60405190815260200161035b565b3480156103f357600080fd5b50610407610402366004612a1e565b610b19565b60405161035b91908151815260208083015190820152604080830151908201526060918201519181019190915260800190565b34801561044657600080fd5b5061034f610455366004612a39565b610c30565b34801561046657600080fd5b506103d9610475366004612a75565b610c56565b34801561048657600080fd5b506040516006815260200161035b565b3480156104a257600080fd5b506103c66104b1366004612a1e565b610d04565b3480156104c257600080fd5b506103d96104d1366004612a75565b610d95565b3480156104e257600080fd5b506005546103d9565b3480156104f757600080fd5b506103c6610506366004612a75565b610e20565b34801561051757600080fd5b5060085461052b906001600160a01b031681565b6040516001600160a01b03909116815260200161035b565b34801561054f57600080fd5b5061034f61055e366004612a1e565b60116020526000908152604090205460ff1681565b34801561057f57600080fd5b506103d97f000000000000000000000000000000000000000000000000000000000000000081565b3480156105b357600080fd5b506103c66105c2366004612a75565b611026565b3480156105d357600080fd5b506103d961106e565b3480156105e857600080fd5b506103c66105f7366004612a1e565b6110a4565b34801561060857600080fd5b506103d9610617366004612a1e565b6001600160a01b031660009081526020819052604090205490565b34801561063e57600080fd5b506103c66110d7565b34801561065357600080fd5b506103d9600181565b34801561066857600080fd5b506103c6610677366004612a1e565b6110eb565b34801561068857600080fd5b506006546001600160a01b031661052b565b3480156106a657600080fd5b506103d96103e881565b3480156106bc57600080fd5b50600f546103d9565b3480156106d157600080fd5b506103c66106e0366004612a75565b61111e565b3480156106f157600080fd5b506103796111fe565b34801561070657600080fd5b5061034f610715366004612a1e565b600a6020526000908152604090205460ff1681565b34801561073657600080fd5b506103d960095481565b34801561074c57600080fd5b5061052b7f000000000000000000000000000000000000000000000000000000000000000081565b34801561078057600080fd5b506103c661078f366004612a75565b61120d565b3480156107a057600080fd5b5060085461034f90600160a01b900460ff1681565b3480156107c157600080fd5b5061034f6107d03660046129af565b61128d565b3480156107e157600080fd5b506103c66107f0366004612a75565b61129b565b34801561080157600080fd5b506103d9610810366004612a1e565b6001600160a01b031660009081526012602052604090206004015490565b34801561083a57600080fd5b506103c6610849366004612a1e565b61134e565b34801561085a57600080fd5b50600b5461052b906001600160a01b031681565b34801561087a57600080fd5b506103c6610889366004612a8e565b6113ad565b34801561089a57600080fd5b506103c66108a9366004612a8e565b61144e565b3480156108ba57600080fd5b506103d97f000000000000000000000000000000000000000000000000000000000000000081565b6103c66114ef565b3480156108f657600080fd5b506103d9610905366004612aab565b6001600160a01b03918216600090815260016020908152604080832093909416825291909152205490565b34801561093c57600080fd5b506103c661169b565b34801561095157600080fd5b506103d9610960366004612a1e565b61173e565b34801561097157600080fd5b506103c66109803660046129e7565b611749565b34801561099157600080fd5b506103c66109a0366004612a1e565b611779565b3480156109b157600080fd5b506103c66109c0366004612a1e565b6117cd565b3480156109d157600080fd5b50600c5461052b906001600160a01b031681565b3480156109f157600080fd5b506103d9610a00366004612a1e565b6118fc565b606060038054610a1490612ade565b80601f0160208091040260200160405190810160405280929190818152602001828054610a4090612ade565b8015610a8d5780601f10610a6257610100808354040283529160200191610a8d565b820191906000526020600020905b815481529060010190602001808311610a7057829003601f168201915b5050505050905090565b600033610aa58185856119d8565b60019150505b92915050565b610ab96119ea565b6001600160a01b0382166000818152600a6020908152604091829020805460ff191685151590811790915591519182527ff93f9a76c1bf3444d22400a00cb9fe990e6abe9dbb333fda48859cfee864543d91015b60405180910390a25050565b610b446040518060800160405280600081526020016000815260200160008152602001600081525090565b6000610b4f83611a30565b6001600160a01b03841660009081526012602052604081206004015491925090610b799042612b2e565b90506000610b8d6103e86301e13380612b41565b8284610bd97f00000000000000000000000000000000000000000000000000000000000000007f0000000000000000000000000000000000000000000000000000000000000000612b2e565b610be39190612b41565b610bed9190612b41565b610bf79190612b58565b90506000610c058484611aeb565b6040805160808101825293845260006020850181905290840191909152606083015250949350505050565b600033610c3e858285611bd7565b610c49858585611c6e565b60019150505b9392505050565b600080600c60009054906101000a90046001600160a01b03166001600160a01b03166330c0b9ec6040518163ffffffff1660e01b8152600401602060405180830381865afa158015610cac573d6000803e3d6000fd5b505050506040513d601f19601f82011682018060405250810190610cd09190612b7a565b9050610ce160016305f5e100612b41565b610cf09064e8d4a51000612b41565b610cfa8285612b41565b610c4f9190612b58565b600b546001600160a01b03163314610d895760405162461bcd60e51b815260206004820152603560248201527f526577617264733a204f6e6c79207265776172647320636f6e7472616374206360448201527f616e2063616c6c20746869732066756e6374696f6e000000000000000000000060648201526084015b60405180910390fd5b610d9281611ce6565b50565b600080600c60009054906101000a90046001600160a01b03166001600160a01b031663caafa6c16040518163ffffffff1660e01b8152600401602060405180830381865afa158015610deb573d6000803e3d6000fd5b505050506040513d601f19601f82011682018060405250810190610e0f9190612b7a565b9050610cf060016305f5e100612b41565b600854600160a01b900460ff16610e795760405162461bcd60e51b815260206004820152601c60248201527f4162737472616374204c53543a20627579206e6f7420616374697665000000006044820152606401610d80565b600854600160a81b900460ff1615610efa57336000908152600a602052604090205460ff16610efa5760405162461bcd60e51b815260206004820152602760248201527f4162737472616374204c53543a2063616c6c6572206973206e6f742077686974604482015266195b1a5cdd195960ca1b6064820152608401610d80565b6000610f0582610d95565b9050610f1081611d24565b15610f5d5760405162461bcd60e51b815260206004820152601460248201527f5173643a204275792065786365656473206361700000000000000000000000006044820152606401610d80565b600954821015610faf5760405162461bcd60e51b815260206004820152601c60248201527f5173643a20496e73756666696369656e742062757920616d6f756e74000000006044820152606401610d80565b610fe46001600160a01b037f000000000000000000000000000000000000000000000000000000000000000016333085611d44565b610fee3382611dc0565b6110187f000000000000000000000000000000000000000000000000000000000000000083611df6565b6110223382611ef0565b5050565b61102e6119ea565b61103781600555565b6040518181527fb42dbc56569dad594f79a8fa479f0b9b87b68602d1b8fc221d10b62bf703dbed906020015b60405180910390a150565b600e5460009081906110809042612b2e565b600f54909150611091908290612b41565b60105461109e9190612b93565b91505090565b6110ac6119ea565b600c805473ffffffffffffffffffffffffffffffffffffffff19166001600160a01b03831617905550565b6110df6119ea565b6110e96000611f3a565b565b6110f36119ea565b600b805473ffffffffffffffffffffffffffffffffffffffff19166001600160a01b03831617905550565b600b546001600160a01b0316331461119e5760405162461bcd60e51b815260206004820152603560248201527f526577617264733a204f6e6c79207265776172647320636f6e7472616374206360448201527f616e2063616c6c20746869732066756e6374696f6e00000000000000000000006064820152608401610d80565b6111a781611d24565b156111f45760405162461bcd60e51b815260206004820152601560248201527f5173643a204d696e7420657863656564732063617000000000000000000000006044820152606401610d80565b610d923382611dc0565b606060048054610a1490612ade565b600b546001600160a01b031633146111f45760405162461bcd60e51b815260206004820152603560248201527f526577617264733a204f6e6c79207265776172647320636f6e7472616374206360448201527f616e2063616c6c20746869732066756e6374696f6e00000000000000000000006064820152608401610d80565b600033610aa5818585611c6e565b6112a36119ea565b600081116113195760405162461bcd60e51b815260206004820152602560248201527f4d696e20616d6f756e7420627579206d7573742062652067726561746572207460448201527f68616e20300000000000000000000000000000000000000000000000000000006064820152608401610d80565b60098190556040518181527f4d02ac2bfe90115b91d59c32ad6d07ea86d935aedb62055d844decbc0a6cb47190602001611063565b6113566119ea565b6008805473ffffffffffffffffffffffffffffffffffffffff19166001600160a01b0383169081179091556040517f8125853d25d6f68e074fb323e9f6e68b582733c9f03a78a2fda62e81d5d594f490600090a250565b6113b56119ea565b6008805482158015600160a81b027fffffffffffffffffffff00ffffffffffffffffffffffffffffffffffffffffff909216919091179091556114205760405133907fe17ac05ff4095c2a1b270ddc6f70ea762311620bf4be3b1c2b0a9f4d5b16a53390600090a250565b60405133907f5a5fb1bb60b955fafbedf12a782cf1135ba3f37b851d547e79c04e55d1d9a2bb90600090a250565b6114566119ea565b6008805482158015600160a01b027fffffffffffffffffffffff00ffffffffffffffffffffffffffffffffffffffff909216919091179091556114c15760405133907f414deba86f382e3da8ecf26ff472fe712d2e8489ed191afbb662b3d720cb4b4590600090a250565b60405133907fb474c7aee2343d3d4a0a18ecf7798a53688ce4d25cab70fbad7ea88866e881a590600090a250565b600854600160a01b900460ff166115485760405162461bcd60e51b815260206004820152601c60248201527f4162737472616374204c53543a20627579206e6f7420616374697665000000006044820152606401610d80565b600854600160a81b900460ff16156115c957336000908152600a602052604090205460ff166115c95760405162461bcd60e51b815260206004820152602760248201527f4162737472616374204c53543a2063616c6c6572206973206e6f742077686974604482015266195b1a5cdd195960ca1b6064820152608401610d80565b60006115d434610c56565b90506115df81611d24565b1561162c5760405162461bcd60e51b815260206004820152601460248201527f5173643a204275792065786365656473206361700000000000000000000000006044820152606401610d80565b60095434101561167e5760405162461bcd60e51b815260206004820152601c60248201527f5173643a20496e73756666696369656e742062757920616d6f756e74000000006044820152606401610d80565b6116883382611dc0565b61169134611f99565b610d923382611ef0565b6116a36119ea565b60006116b76006546001600160a01b031690565b6001600160a01b0316036117235760405162461bcd60e51b815260206004820152602d60248201527f41627374726163744c53543a206f776e65722063616e6e6f742062652074686560448201526c207a65726f206164647265737360981b6064820152608401610d80565b6110e96117386006546001600160a01b031690565b4761208d565b6000610aab82611a30565b6117516119ea565b6001600160a01b0382166000908152601160205260409020805460ff19168215151790555050565b6117816119ea565b6001600160a01b0381166117c4576040517f1e4fbdf700000000000000000000000000000000000000000000000000000000815260006004820152602401610d80565b610d9281611f3a565b6117d56119ea565b60006117e96006546001600160a01b031690565b6001600160a01b0316036118555760405162461bcd60e51b815260206004820152602d60248201527f41627374726163744c53543a206f776e65722063616e6e6f742062652074686560448201526c207a65726f206164647265737360981b6064820152608401610d80565b610d9261186a6006546001600160a01b031690565b6040517f70a082310000000000000000000000000000000000000000000000000000000081523060048201526001600160a01b038416906370a0823190602401602060405180830381865afa1580156118c7573d6000803e3d6000fd5b505050506040513d601f19601f820116820180604052508101906118eb9190612b7a565b6001600160a01b0384169190612124565b6001600160a01b0381166000908152601260209081526040808320815160a08101835281548152600182015493810193909352600281015491830191909152600381015460608301526004015460808201819052829061195c9042612b2e565b9050600081116119ae5760405162461bcd60e51b815260206004820152601860248201527f526577617264733a20436c61696d2074696d65206973203000000000000000006044820152606401610d80565b8082606001516119bc61106e565b6119c69190612b2e565b6119d09190612b58565b949350505050565b6119e58383836001612155565b505050565b6006546001600160a01b031633146110e9576040517f118cdaa7000000000000000000000000000000000000000000000000000000008152336004820152602401610d80565b6001600160a01b0381166000908152601260209081526040808320815160a081018352815481526001820154938101939093526002810154918301919091526003810154606083015260040154608082018190528290611a909042612b2e565b905080600003611aa4575060009392505050565b6000826020015142611ab69190612b2e565b905081818460000151611ac99190612b41565b8460400151611ad89190612b93565b611ae29190612b58565b95945050505050565b600080600c60009054906101000a90046001600160a01b03166001600160a01b031663831f3eb86040518163ffffffff1660e01b8152600401602060405180830381865afa158015611b41573d6000803e3d6000fd5b505050506040513d601f19601f82011682018060405250810190611b659190612b7a565b9050611b73816103e8612b41565b611b81906301e13380612b41565b83611bac867f0000000000000000000000000000000000000000000000000000000000000000612b41565b611bb69190612b41565b611bc890670de0b6b3a7640000612b41565b6119c69064e8d4a51000612b41565b6001600160a01b038381166000908152600160209081526040808320938616835292905220546000198114611c685781811015611c59576040517ffb8f41b20000000000000000000000000000000000000000000000000000000081526001600160a01b03841660048201526024810182905260448101839052606401610d80565b611c6884848484036000612155565b50505050565b6001600160a01b038316611cb1576040517f96c6fd1e00000000000000000000000000000000000000000000000000000000815260006004820152602401610d80565b6001600160a01b038216611cdb5760405163ec442f0560e01b815260006004820152602401610d80565b6119e583838361225c565b6001600160a01b0381166000908152601260205260408120426004820181905560018201556002810191909155611d1b61106e565b60039091015550565b600060055482611d3360025490565b611d3d9190612b93565b1192915050565b6040516001600160a01b038481166024830152838116604483015260648201839052611c689186918216906323b872dd906084015b604051602081830303815290604052915060e01b6020820180517bffffffffffffffffffffffffffffffffffffffffffffffffffffffff838183161783525050505061227f565b6001600160a01b038216611dea5760405163ec442f0560e01b815260006004820152602401610d80565b6110226000838361225c565b6001600160a01b038216611e725760405162461bcd60e51b815260206004820152603660248201527f4162737472616374204c53543a20746f6b656e20616464726573732063616e6e60448201527f6f7420626520746865207a65726f2061646472657373000000000000000000006064820152608401610d80565b60008111611ed65760405162461bcd60e51b815260206004820152602b60248201527f4162737472616374204c53543a20616d6f756e74206d7573742062652067726560448201526a061746572207468616e20360ac1b6064820152608401610d80565b600854611022906001600160a01b03848116911683612124565b816001600160a01b03167f0a37b72bb67eee30e09084cf386f8a17817c57f620c3ab95fb25d6a20356ec7782611f2560025490565b60408051928352602083019190915201610b0d565b600680546001600160a01b0383811673ffffffffffffffffffffffffffffffffffffffff19831681179093556040519116919082907f8be0079c531659141344cd1fd0a4f28419497f9722a3daafe3b4186f6b6457e090600090a35050565b6008546001600160a01b03166120175760405162461bcd60e51b815260206004820152602960248201527f4162737472616374204c53543a206469737472696275746f722061646472657360448201527f73206e6f742073657400000000000000000000000000000000000000000000006064820152608401610d80565b6000811161207b5760405162461bcd60e51b815260206004820152602b60248201527f4162737472616374204c53543a20616d6f756e74206d7573742062652067726560448201526a061746572207468616e20360ac1b6064820152608401610d80565b600854610d92906001600160a01b0316825b804710156120b05760405163cd78605960e01b8152306004820152602401610d80565b6000826001600160a01b03168260405160006040518083038185875af1925050503d80600081146120fd576040519150601f19603f3d011682016040523d82523d6000602084013e612102565b606091505b50509050806119e557604051630a12f52160e11b815260040160405180910390fd5b6040516001600160a01b038381166024830152604482018390526119e591859182169063a9059cbb90606401611d79565b6001600160a01b038416612198576040517fe602df0500000000000000000000000000000000000000000000000000000000815260006004820152602401610d80565b6001600160a01b0383166121db576040517f94280d6200000000000000000000000000000000000000000000000000000000815260006004820152602401610d80565b6001600160a01b0380851660009081526001602090815260408083209387168352929052208290558015611c6857826001600160a01b0316846001600160a01b03167f8c5be1e5ebec7d5bd14f71427d1e84f3dd0314c0f7b2291e5b200ac8c7c3b9258460405161224e91815260200190565b60405180910390a350505050565b6122678383836122fb565b6122738382600061243e565b6119e58282600161243e565b60006122946001600160a01b03841683612544565b905080516000141580156122b95750808060200190518101906122b79190612ba6565b155b156119e5576040517f5274afe70000000000000000000000000000000000000000000000000000000081526001600160a01b0384166004820152602401610d80565b6001600160a01b03831661232657806002600082825461231b9190612b93565b909155506123b19050565b6001600160a01b03831660009081526020819052604090205481811015612392576040517fe450d38c0000000000000000000000000000000000000000000000000000000081526001600160a01b03851660048201526024810182905260448101839052606401610d80565b6001600160a01b03841660009081526020819052604090209082900390555b6001600160a01b0382166123cd576002805482900390556123ec565b6001600160a01b03821660009081526020819052604090208054820190555b816001600160a01b0316836001600160a01b03167fddf252ad1be2c89b69c2b068fc378daa952ba7f163c4a11628f55a4df523b3ef8360405161243191815260200190565b60405180910390a3505050565b612449838383612552565b6001600160a01b03831615806124635750612463836127d1565b1561246d57505050565b6001600160a01b0383166000908152601260205260408120600181015490919081036124ad576000600283015560105460038301554260048301556124e5565b60018201546124bc9042612b2e565b82549091506124cc908290612b41565b8260020160008282546124df9190612b93565b90915550505b60008360018111156124f9576124f9612bc3565b0361251d57838260000160008282546125129190612b2e565b909155506125379050565b838260000160008282546125319190612b93565b90915550505b5042600190910155505050565b6060610c4f83836000612801565b600e546000906125629042612b2e565b600f54909150612573908290612b41565b60108054600090612585908490612b93565b90915550506001600160a01b0384166126055760008260018111156125ac576125ac612bc3565b036125d15782600d60000160008282546125c69190612b93565b909155506126059050565b60018260018111156125e5576125e5612bc3565b036126055782600d60000160008282546125ff9190612b2e565b90915550505b6000612610856127d1565b905080801561263657506001600160a01b03851660009081526012602052604090205415155b1561272357600083600181111561264f5761264f612bc3565b03612695576001600160a01b038516600090815260126020526040902054612678908590612b2e565b600f805460009061268a908490612b2e565b909155506126ea9050565b60018360018111156126a9576126a9612bc3565b036126ea576001600160a01b0385166000908152601260205260409020546126d2908590612b93565b600f80546000906126e4908490612b2e565b90915550505b6001600160a01b0385166000908152601260205260408120818155600181018290556002810182905560038101829055600401556127c6565b600083600181111561273757612737612bc3565b14801561275257506001600160a01b03851615806127525750805b156127775783600d600201600082825461276c9190612b93565b909155506127c69050565b600183600181111561278b5761278b612bc3565b1480156127a657506001600160a01b03851615806127a65750805b156127c65783600d60020160008282546127c09190612b2e565b90915550505b505042600e55505050565b6001600160a01b03811660009081526011602052604081205460ff16156127fa57506000919050565b503b151590565b6060814710156128265760405163cd78605960e01b8152306004820152602401610d80565b600080856001600160a01b031684866040516128429190612bd9565b60006040518083038185875af1925050503d806000811461287f576040519150601f19603f3d011682016040523d82523d6000602084013e612884565b606091505b509150915061289486838361289e565b9695505050505050565b6060826128b3576128ae82612913565b610c4f565b81511580156128ca57506001600160a01b0384163b155b1561290c576040517f9996b3150000000000000000000000000000000000000000000000000000000081526001600160a01b0385166004820152602401610d80565b5080610c4f565b8051156129235780518082602001fd5b604051630a12f52160e11b815260040160405180910390fd5b60005b8381101561295757818101518382015260200161293f565b50506000910152565b602081526000825180602084015261297f81604085016020870161293c565b601f01601f19169190910160400192915050565b80356001600160a01b03811681146129aa57600080fd5b919050565b600080604083850312156129c257600080fd5b6129cb83612993565b946020939093013593505050565b8015158114610d9257600080fd5b600080604083850312156129fa57600080fd5b612a0383612993565b91506020830135612a13816129d9565b809150509250929050565b600060208284031215612a3057600080fd5b610c4f82612993565b600080600060608486031215612a4e57600080fd5b612a5784612993565b9250612a6560208501612993565b9150604084013590509250925092565b600060208284031215612a8757600080fd5b5035919050565b600060208284031215612aa057600080fd5b8135610c4f816129d9565b60008060408385031215612abe57600080fd5b612ac783612993565b9150612ad560208401612993565b90509250929050565b600181811c90821680612af257607f821691505b602082108103612b1257634e487b7160e01b600052602260045260246000fd5b50919050565b634e487b7160e01b600052601160045260246000fd5b81810381811115610aab57610aab612b18565b8082028115828204841417610aab57610aab612b18565b600082612b7557634e487b7160e01b600052601260045260246000fd5b500490565b600060208284031215612b8c57600080fd5b5051919050565b80820180821115610aab57610aab612b18565b600060208284031215612bb857600080fd5b8151610c4f816129d9565b634e487b7160e01b600052602160045260246000fd5b60008251612beb81846020870161293c565b919091019291505056fea2646970667358221220f1f2249472a01dff9cbcadb9d9421f76712c3c1309b0e113f70271ead6d03bf964736f6c63430008170033",
  "devdoc": {
    "errors": {
      "AddressEmptyCode(address)": [
        {
          "details": "There's no code at `target` (it is not a contract)."
        }
      ],
      "AddressInsufficientBalance(address)": [
        {
          "details": "The ETH balance of the account is not enough to perform the operation."
        }
      ],
      "ERC20InsufficientAllowance(address,uint256,uint256)": [
        {
          "details": "Indicates a failure with the `spender`s `allowance`. Used in transfers.",
          "params": {
            "allowance": "Amount of tokens a `spender` is allowed to operate with.",
            "needed": "Minimum amount required to perform a transfer.",
            "spender": "Address that may be allowed to operate on tokens without being their owner."
          }
        }
      ],
      "ERC20InsufficientBalance(address,uint256,uint256)": [
        {
          "details": "Indicates an error related to the current `balance` of a `sender`. Used in transfers.",
          "params": {
            "balance": "Current balance for the interacting account.",
            "needed": "Minimum amount required to perform a transfer.",
            "sender": "Address whose tokens are being transferred."
          }
        }
      ],
      "ERC20InvalidApprover(address)": [
        {
          "details": "Indicates a failure with the `approver` of a token to be approved. Used in approvals.",
          "params": {
            "approver": "Address initiating an approval operation."
          }
        }
      ],
      "ERC20InvalidReceiver(address)": [
        {
          "details": "Indicates a failure with the token `receiver`. Used in transfers.",
          "params": {
            "receiver": "Address to which tokens are being transferred."
          }
        }
      ],
      "ERC20InvalidSender(address)": [
        {
          "details": "Indicates a failure with the token `sender`. Used in transfers.",
          "params": {
            "sender": "Address whose tokens are being transferred."
          }
        }
      ],
      "ERC20InvalidSpender(address)": [
        {
          "details": "Indicates a failure with the `spender` to be approved. Used in approvals.",
          "params": {
            "spender": "Address that may be allowed to operate on tokens without being their owner."
          }
        }
      ],
      "FailedInnerCall()": [
        {
          "details": "A call to an address target failed. The target may have reverted."
        }
      ],
      "OwnableInvalidOwner(address)": [
        {
          "details": "The owner is not a valid owner account. (eg. `address(0)`)"
        }
      ],
      "OwnableUnauthorizedAccount(address)": [
        {
          "details": "The caller account is not authorized to perform an operation."
        }
      ],
      "ReentrancyGuardReentrantCall()": [
        {
          "details": "Unauthorized reentrant call."
        }
      ],
      "SafeERC20FailedOperation(address)": [
        {
          "details": "An operation with an ERC20 token failed."
        }
      ]
    },
    "events": {
      "Approval(address,address,uint256)": {
        "details": "Emitted when the allowance of a `spender` for an `owner` is set by a call to {approve}. `value` is the new allowance."
      },
      "Transfer(address,address,uint256)": {
        "details": "Emitted when `value` tokens are moved from one account (`from`) to another (`to`). Note that `value` may be zero."
      }
    },
    "kind": "dev",
    "methods": {
      "allowance(address,address)": {
        "details": "See {IERC20-allowance}."
      },
      "approve(address,uint256)": {
        "details": "See {IERC20-approve}. NOTE: If `value` is the maximum `uint256`, the allowance is not updated on `transferFrom`. This is semantically equivalent to an infinite approval. Requirements: - `spender` cannot be the zero address."
      },
      "balanceOf(address)": {
        "details": "See {IERC20-balanceOf}."
      },
      "decimals()": {
        "details": "Returns the number of decimals used to get its user representation. For example, if `decimals` equals `2`, a balance of `505` tokens should be displayed to a user as `5.05` (`505 / 10 ** 2`). Tokens usually opt for a value of 18, imitating the relationship between Ether and Wei. This is the default value returned by this function, unless it's overridden. NOTE: This information is only used for _display_ purposes: it in no way affects any of the arithmetic of the contract, including {IERC20-balanceOf} and {IERC20-transfer}."
      },
      "name()": {
        "details": "Returns the name of the token."
      },
      "owner()": {
        "details": "Returns the address of the current owner."
      },
      "renounceOwnership()": {
        "details": "Leaves the contract without owner. It will not be possible to call `onlyOwner` functions. Can only be called by the current owner. NOTE: Renouncing ownership will leave the contract without an owner, thereby disabling any functionality that is only available to the owner."
      },
      "symbol()": {
        "details": "Returns the symbol of the token, usually a shorter version of the name."
      },
      "totalSupply()": {
        "details": "See {IERC20-totalSupply}."
      },
      "transfer(address,uint256)": {
        "details": "See {IERC20-transfer}. Requirements: - `to` cannot be the zero address. - the caller must have a balance of at least `value`."
      },
      "transferFrom(address,address,uint256)": {
        "details": "See {IERC20-transferFrom}. Emits an {Approval} event indicating the updated allowance. This is not required by the EIP. See the note at the beginning of {ERC20}. NOTE: Does not update the allowance if the current allowance is the maximum `uint256`. Requirements: - `from` and `to` cannot be the zero address. - `from` must have a balance of at least `value`. - the caller must have allowance for ``from``'s tokens of at least `value`."
      },
      "transferOwnership(address)": {
        "details": "Transfers ownership of the contract to a new account (`newOwner`). Can only be called by the current owner."
      },
      "withdrawERC20(address)": {
        "params": {
          "token": "The address of the ERC20 token to withdraw"
        }
      }
    },
    "version": 1
  },
  "userdoc": {
    "kind": "user",
    "methods": {
      "withdrawERC20(address)": {
        "notice": "Allows the owner to withdraw any ERC20 token from the contract"
      },
      "withdrawETH()": {
        "notice": "Allows the owner to withdraw stuck ETH from the contract"
      }
    },
    "version": 1
  },
  "storageLayout": {
    "storage": [
      {
        "astId": 307,
        "contract": "contracts/lst/Qsd.sol:Qsd",
        "label": "_balances",
        "offset": 0,
        "slot": "0",
        "type": "t_mapping(t_address,t_uint256)"
      },
      {
        "astId": 313,
        "contract": "contracts/lst/Qsd.sol:Qsd",
        "label": "_allowances",
        "offset": 0,
        "slot": "1",
        "type": "t_mapping(t_address,t_mapping(t_address,t_uint256))"
      },
      {
        "astId": 315,
        "contract": "contracts/lst/Qsd.sol:Qsd",
        "label": "_totalSupply",
        "offset": 0,
        "slot": "2",
        "type": "t_uint256"
      },
      {
        "astId": 317,
        "contract": "contracts/lst/Qsd.sol:Qsd",
        "label": "_name",
        "offset": 0,
        "slot": "3",
        "type": "t_string_storage"
      },
      {
        "astId": 319,
        "contract": "contracts/lst/Qsd.sol:Qsd",
        "label": "_symbol",
        "offset": 0,
        "slot": "4",
        "type": "t_string_storage"
      },
      {
        "astId": 15151,
        "contract": "contracts/lst/Qsd.sol:Qsd",
        "label": "_cap",
        "offset": 0,
        "slot": "5",
        "type": "t_uint256"
      },
      {
        "astId": 8,
        "contract": "contracts/lst/Qsd.sol:Qsd",
        "label": "_owner",
        "offset": 0,
        "slot": "6",
        "type": "t_address"
      },
      {
        "astId": 1700,
        "contract": "contracts/lst/Qsd.sol:Qsd",
        "label": "_status",
        "offset": 0,
        "slot": "7",
        "type": "t_uint256"
      },
      {
        "astId": 9274,
        "contract": "contracts/lst/Qsd.sol:Qsd",
        "label": "distributionAddress",
        "offset": 0,
        "slot": "8",
        "type": "t_address"
      },
      {
        "astId": 9276,
        "contract": "contracts/lst/Qsd.sol:Qsd",
        "label": "buyActive",
        "offset": 20,
        "slot": "8",
        "type": "t_bool"
      },
      {
        "astId": 9278,
        "contract": "contracts/lst/Qsd.sol:Qsd",
        "label": "whitelistActive",
        "offset": 21,
        "slot": "8",
        "type": "t_bool"
      },
      {
        "astId": 9280,
        "contract": "contracts/lst/Qsd.sol:Qsd",
        "label": "minAmountBuy",
        "offset": 0,
        "slot": "9",
        "type": "t_uint256"
      },
      {
        "astId": 9284,
        "contract": "contracts/lst/Qsd.sol:Qsd",
        "label": "whitelist",
        "offset": 0,
        "slot": "10",
        "type": "t_mapping(t_address,t_bool)"
      },
      {
        "astId": 10569,
        "contract": "contracts/lst/Qsd.sol:Qsd",
        "label": "rewardsAddress",
        "offset": 0,
        "slot": "11",
        "type": "t_address"
      },
      {
        "astId": 10572,
        "contract": "contracts/lst/Qsd.sol:Qsd",
        "label": "tokenPriceCalculator",
        "offset": 0,
        "slot": "12",
        "type": "t_contract(ITokenPriceCalculator)8519"
      },
      {
        "astId": 10591,
        "contract": "contracts/lst/Qsd.sol:Qsd",
        "label": "_supply",
        "offset": 0,
        "slot": "13",
        "type": "t_struct(Supply)10588_storage"
      },
      {
        "astId": 10595,
        "contract": "contracts/lst/Qsd.sol:Qsd",
        "label": "whitelistedContracts",
        "offset": 0,
        "slot": "17",
        "type": "t_mapping(t_address,t_bool)"
      },
      {
        "astId": 10628,
        "contract": "contracts/lst/Qsd.sol:Qsd",
        "label": "_userRecords",
        "offset": 0,
        "slot": "18",
        "type": "t_mapping(t_address,t_struct(UserRecord)10567_storage)"
      }
    ],
    "types": {
      "t_address": {
        "encoding": "inplace",
        "label": "address",
        "numberOfBytes": "20"
      },
      "t_bool": {
        "encoding": "inplace",
        "label": "bool",
        "numberOfBytes": "1"
      },
      "t_contract(ITokenPriceCalculator)8519": {
        "encoding": "inplace",
        "label": "contract ITokenPriceCalculator",
        "numberOfBytes": "20"
      },
      "t_mapping(t_address,t_bool)": {
        "encoding": "mapping",
        "key": "t_address",
        "label": "mapping(address => bool)",
        "numberOfBytes": "32",
        "value": "t_bool"
      },
      "t_mapping(t_address,t_mapping(t_address,t_uint256))": {
        "encoding": "mapping",
        "key": "t_address",
        "label": "mapping(address => mapping(address => uint256))",
        "numberOfBytes": "32",
        "value": "t_mapping(t_address,t_uint256)"
      },
      "t_mapping(t_address,t_struct(UserRecord)10567_storage)": {
        "encoding": "mapping",
        "key": "t_address",
        "label": "mapping(address => struct AbstractRewards.UserRecord)",
        "numberOfBytes": "32",
        "value": "t_struct(UserRecord)10567_storage"
      },
      "t_mapping(t_address,t_uint256)": {
        "encoding": "mapping",
        "key": "t_address",
        "label": "mapping(address => uint256)",
        "numberOfBytes": "32",
        "value": "t_uint256"
      },
      "t_string_storage": {
        "encoding": "bytes",
        "label": "string",
        "numberOfBytes": "32"
      },
      "t_struct(Supply)10588_storage": {
        "encoding": "inplace",
        "label": "struct AbstractRewards.Supply",
        "members": [
          {
            "astId": 10581,
            "contract": "contracts/lst/Qsd.sol:Qsd",
            "label": "totalSupply",
            "offset": 0,
            "slot": "0",
            "type": "t_uint256"
          },
          {
            "astId": 10583,
            "contract": "contracts/lst/Qsd.sol:Qsd",
            "label": "lastUpdateTime",
            "offset": 0,
            "slot": "1",
            "type": "t_uint256"
          },
          {
            "astId": 10585,
            "contract": "contracts/lst/Qsd.sol:Qsd",
            "label": "currentCirculatingSupply",
            "offset": 0,
            "slot": "2",
            "type": "t_uint256"
          },
          {
            "astId": 10587,
            "contract": "contracts/lst/Qsd.sol:Qsd",
            "label": "cumulativeCirculatingSupply",
            "offset": 0,
            "slot": "3",
            "type": "t_uint256"
          }
        ],
        "numberOfBytes": "128"
      },
      "t_struct(UserRecord)10567_storage": {
        "encoding": "inplace",
        "label": "struct AbstractRewards.UserRecord",
        "members": [
          {
            "astId": 10558,
            "contract": "contracts/lst/Qsd.sol:Qsd",
            "label": "userBalance",
            "offset": 0,
            "slot": "0",
            "type": "t_uint256"
          },
          {
            "astId": 10560,
            "contract": "contracts/lst/Qsd.sol:Qsd",
            "label": "lastUpdateTime",
            "offset": 0,
            "slot": "1",
            "type": "t_uint256"
          },
          {
            "astId": 10562,
            "contract": "contracts/lst/Qsd.sol:Qsd",
            "label": "cumulativeBalance",
            "offset": 0,
            "slot": "2",
            "type": "t_uint256"
          },
          {
            "astId": 10564,
            "contract": "contracts/lst/Qsd.sol:Qsd",
            "label": "cumCirculatingSupplyLastClaim",
            "offset": 0,
            "slot": "3",
            "type": "t_uint256"
          },
          {
            "astId": 10566,
            "contract": "contracts/lst/Qsd.sol:Qsd",
            "label": "lastClaimTime",
            "offset": 0,
            "slot": "4",
            "type": "t_uint256"
          }
        ],
        "numberOfBytes": "160"
      },
      "t_uint256": {
        "encoding": "inplace",
        "label": "uint256",
        "numberOfBytes": "32"
      }
    }
  }
}